:020000040000FA
:06000000020A280201B310
:03002B0002087355
:0300330002068F33
:0300430002072889
:030053000200E4C4
:03006B0002067515
:100083000201480101FF01010503010F10FEFFB842
:1000930012B812B812B81274116E11B8128D1F0073
:1000A3000000005120000000000C0000000C0001C3
:1000B300FFFF0102007405000000E705640002026F
:1000C30000080000050207051E02051E020A0A03B6
:1000D300B80B02803E0102F1FF1496511800020290
:1000E30006C0E074F21203CCA2AFE433FED2AFE554
:1000F300A7FFE5A1F5085F54106006121A5075A119
:10010300EFE5085F54086008121A5675A1F7802BB3
:10011300EFA2E0C0D0E508A2E092F012094F1581EA
:1001230082F05017906198E0F8900AC4E0C398A257
:10013300D265D0335002E8F075A1FEEEA2E092AF93
:100143007F0102042BC0E074F21203CCA2AFE433AC
:10015300FED2AF9061A4E0F8759B00E59158540876
:1001630060087591F7121A9E802AE5915854106021
:10017300087591EF121AA4801BE8A2E0C0D0E591A4
:10018300A2E092F012094F158182F05007E0C2E01D
:10019300F0121BE89061A3E0F8E5E9585404600EFF
:1001A300121BBE75E9FB906193E0A2E640F2808BDF
:1001B300C0E074F21203CCA2AFE433FED2AF90617D
:1001C300A5E0F8E5BF585404600675BFFB121C0098
:1001D30002013EC3E498F8E499F91202178026C39A
:1001E300E49AFAE49BFBE920E7E9120217E498F8A2
:1001F300E499F922C3E498F8E499F9120217E49810
:10020300F8E499F9C3E49AFAE49BFB22EB20E7CFE5
:10021300E920E7E0B90010BB0008E88AF084F8AAF7
:10022300F022E4FBC8FA22EB70227B10C833C8C962
:1002330033C9335007C39AC3DBF280069A50012AAD
:10024300DBEAC833F4C8C933F4C9FA2275F008E409
:10025300C833C8C933C933C99AC99B5004C92AC909
:100263003BD5F0ECFBC833F4C8E4C9FA220808080C
:10027300EAC0E0EBC0E086F0E7A4FA180986F0E7ED
:10028300A42AFA180986F0E7A42AFA180986F0E7DF
:10029300A42AFA1986F0E7A4FBE5F02AFA190886DE
:1002A300F0E7A42BFBE5F03AFA190886F0E7A42B54
:1002B300FBE5F03AFA18180986F0E7A4C5F02BFB22
:1002C300E43AFA1908E7C5F0C6A426F6E5F03BFBC5
:1002D300E43AFA1886F0E7A4F6E5F00826F6E43BDC
:1002E30008F6E43A08F6D0E0FBD0E0FA22E4CFC007
:1002F300E0E4CEC0E0E4CDC0E0E4CCC0E075F020A3
:10030300C3E633F608E633F608E633F608E633F6D3
:10031300181818EC33FCED33FDEE33FEEF33FFC357
:10032300EC9709ED9709EE9709EF97191919400F03
:10033300FFEC97FC09ED97FD09EE97FE191906D519
:10034300F0BEECF709EDF709EEF709EFF719191904
:10035300D0E0FCD0E0FDD0E0FED0E0FF222518C5C0
:1003630082C0E0E51934FFC583C0E0E518C3958278
:1003730024F810AF088583198582188008858319AE
:10038300858218D2AFCEF0A3E520F0A37808E60863
:10039300F0A3DEFAEFF0A3E58124FAF8E608F0A370
:1003A300E608F0A3E608F0A30808E608F0A3E608C9
:1003B300F0A315811581D0E0FED0E0F815811581F9
:1003C3001581E8C0E0EEC0E022C0D02518C582C088
:1003D300E0E51934FFC583C0E0E518C3958224F333
:1003E30010AF088583198582188008858319858253
:1003F30018D2AFC8F0A3E9F0A3EAF0A3EBF0A37916
:1004030008E709F0A3D8FAECF0A3EDF0A3EEF0A30C
:10041300EFF0A3D0E0F0A3D0E0F0A3D0E0F0A3E5A9
:1004230020F0A3E5F0F0A322851983851882E0C0AC
:10043300E0A3E0F9A3E0FAA3E0FBA37808E0F60861
:10044300A3DFFAE0FCA3E0FDA3E0FEA3E0FFA3E04B
:10045300C0E0A3E0C0E0A3E0F5D0A3E0F520A3E073
:10046300A3F5F010AF08858319858218800885836A
:1004730019858218D2AFD082D083D0E0F8D0E03291
:10048300120A8AB900030204C5E4900301788B7948
:100493000E8002F0A3D8FCD9FA90108BAA82AB830A
:1004A300900086785F79018015E493A3AC82AD83D5
:1004B3008A828B83F0A3AA82AB838C828D83D8E953
:1004C300D9E775826B7583E074031207EB75829429
:1004D30075831E74001207EB0975F0108E1A8F1BBB
:1004E30085821F85831E851882851983E0CEA3E04C
:1004F300CF851F82851E83EBC9EAC8EDCBECCAC347
:10050300E833C8E933C9EA33CAEB33CBC3EA9EF510
:100513001DEB9FF51CB35004AB1CAA1DEC33CCEDB3
:1005230033CDD5F0DAAE1AAF1B22D083D082ECC024
:10053300E0EDC0E0E493A3FCE493A3FDED4C600D78
:10054300120605EC24FFFCED34FFFD80EFE493A3DA
:10055300FCE493A3FDED4C600D1206D3EC24FFFCE9
:10056300ED34FFFD80EFD0E0FDD0E0FCE493A3C0C9
:10057300E0E493C0E022851983851882E0A3FEE0BE
:10058300A3F5207808E0A3F608DFFAE0A3FFE0A3D1
:10059300C0E0E0A3C0E0E0A3C0E0E0A3C0E0E0A3CC
:1005A300C0E010AF088582188583198008858218FA
:1005B300858319D2AFD083D0820207F1D083D08252
:1005C300E9C0E0E493A3C386F0C5F095F0F908E42D
:1005D30093A386F0C5F095F0700BE493A3C3994001
:1005E30005E9048002A3E475F002A42582F582E5FF
:1005F300F03583F583D0E0F9E493A3C0E0E493C03E
:10060300E022C0E0C3E49396087401939618400F68
:10061300E49366700808740193661870007019A358
:10062300A3C3E49396087401939618A3A3400DD033
:10063300E0D0E0D0E0020569A3A3A3A3A3A3D0E085
:10064300227404800474028000CCC0E0EDC0E0E5B5
:1006530018C39CCCAD1950011D10AF068C188D1911
:1006630080068C188D19D2AF12076DD0E0FDD0E053
:10067300FC22C0E074F21203CCE589A2E15003121C
:10068300192A758900C2C57F0102042BC0E074F2E8
:100693001203CCE58BA2E0500312192A758B00C21A
:1006A300E880E474028000CCC0E0EDC0E0E518C34C
:1006B3009CCCAD1950011D10AF068C188D19800606
:1006C3008C188D19D2AF12074BD0E0FDD0E0FC227D
:1006D300C0E0C0F088F0E493667008087401936684
:1006E300187000A8F0A3A3700BD0F0D0E0D0E0D036
:1006F300E0020569A3A3D0F0D0E022D083D082CC5E
:10070300C0E0E493A360061207AD1470FAE493A368
:1007130060061208BD1470FAD0E0FCE493A3C0E0B5
:10072300E493C0E022C0E074F21203CCA2AFE4333E
:10073300FED2AFC2C0E5D1A2E450031219C6EEA2A5
:10074300E092AF7F0102042BCAC0E0E493A3C58209
:10075300CCC582C583CDC583F0A3C582CCC582C574
:1007630083CDC583DAE5D0E0CA22CAC0E0E0A3C5E1
:1007730082CCC582C583CDC583F0A3C582CCC58297
:10078300C583CDC583DAE6D0E0CA2270090808081C
:10079300226016181818C6C333C608C633C608C65F
:1007A30033C608C633C6D5E0EA22C0E0E493A3D338
:1007B3009C5010E493A3C39C400AD0E0D0E0D0E067
:1007C30002071BA3A3A3D0E022C008C3E096F50849
:1007D30008A3E096420808A3E096420808A3E0961F
:1007E30045087001D3D00822C09FF59FE473D09FC2
:1007F30022D083D082C09FE493C0E0740193C0E011
:10080300740293F59F222518F58210AF08F518405E
:100813000215198008F51840021519D2AF851983FE
:10082300227404800A74038006740280027401C077
:10083300E0F404120809D0E0120A6522C0D025189A
:1008430010AF08F518500205198008F51850020575
:1008530019D2AFD0D022BB0102E722C082C0838964
:10086300828A83BB0003E08002E493D083D0822298
:10087300C0E0C0D0E8C0E0E5A8D2AFC2C7A2E7920B
:10088300AFD0E0F8D0D0D0E0326016080808C6C375
:1008930013C618C613C618C613C618C613C6D5E0A2
:1008A300EA22C3E0C696F608A3E0C696F608A3E0DC
:1008B300C696F608A3E0C696F622C0E0E493A36CBE
:1008C3007009D0E0D0E0D0E002071BA3A3D0E02260
:1008D300251810AF08F518400215198008F51840BF
:1008E300021519D2AF22E76670100809E766700A8D
:1008F3000809E76670040809E76622E066701008D5
:10090300A3E066700A08A3E066700408A3E0662209
:10091300C3E09608A3E09608A3E09608A3E096A296
:10092300D265D03322C3E096F008A3E096F008A383
:10093300E096F008A3E096F022E026F008A3E03664
:10094300F008A3E036F008A3E036F022C0E0E8C0E8
:10095300E0E58124FCF8E6A2E7D0E0F8D0E022E667
:1009630047F60809E647F60809E647F60809E647A1
:10097300F622E026F608A3E036F608A3E036F608EA
:10098300A3E036F622E627F60809E637F60809E675
:1009930037F60809E637F622E657F60809E657F66A
:1009A3000809E657F60809E657F622E056F608A3C3
:1009B300E056F608A3E056F608A3E056F622E05602
:1009C300F008A3E056F008A3E056F008A3E056F0C1
:1009D30022700422600D18C6C333C608C633C6D5B9
:1009E300E0F41822E4C396F608E496F608E496F6D3
:1009F30008E496F622C6F4C608C6F4C608C6F4C6CA
:100A030008C6F4C622C3E7960809E7960809E796DD
:100A13000809E79622C3E09608A3E09608A3E096A8
:100A230008A3E0962275D0007581407518017519E9
:100A33000300020483E0F608A3E0F608A3E0F60847
:100A4300A3E0F622600C08C6C313C618C613C6D5A6
:100A5300E0F422E6F008A3E6F008A3E6F008A3E634
:100A6300F022CAC0E0E6F0A308DAFAD0E0FA22E006
:100A7300FAA3E0FBA3E0FCA3E0FD22EAF0A3EBF082
:100A8300A3ECF0A3EDF022E5C754F84401F5C779D0
:100A930001222518F582E43519F58322C2AF75D6F4
:100AA3009F020000221207F4D7DF021207F4B9E015
:100AB300021207F40EE3021207F45BE4021207F4D6
:100AC300FEE4021207F445E6021207F463E602129B
:100AD30007F4A122001207F4B322001207F405233E
:100AE300001207F46623001207F4F023001207F440
:100AF3009424001207F4E824001207F401250012DD
:100B030007F42725001207F46225001207F4A6252F
:100B1300001207F4CD25001207F41E26001207F475
:100B2300CE26001207F48627001207F44E2800127F
:100B330007F40E29001207F45229001207F477294B
:100B4300001207F4BA29001207F4072A001207F467
:100B53005F2B001207F4E52B001207F4032C00129D
:100B630007F42D2C001207F4472C001207F4562C1F
:100B7300001207F4612C001207F4212D001207F470
:100B83007A2D001207F43C2E001207F4442E0012B3
:100B930007F4082F001207F4742F001207F49F3094
:100BA300001207F4C430001207F43A31001207F4BC
:100BB300CC31001207F48C32001207F4AB3200126E
:100BC30007F4BA33001207F4CC33001207F43C34B1
:100BD300001207F46634001207F4F434001207F429
:100BE3002D35001207F47935001207F495360012FB
:100BF30007F4DE38001207F4E938001207F4F4387A
:100C0300001207F4FF38001207F40939001207F441
:100C13001439001207F42E39001207F43839001280
:100C230007F44239001207F44D39001207F47539FD
:100C3300001207F4D039001207F4DA39001207F46E
:100C4300FE39001207F4223A001207F4803A001228
:100C530007F4C43A001207F4E03A001207F4573BD2
:100C6300001207F48F3B001207F4DB3B001207F47A
:100C7300383C001207F4F23C001207F4D63E00128F
:100C830007F42F3F001207F45F40001207F485407A
:100C9300001207F40E42001207F48A45001207F40B
:100CA3005C47001207F42549001207F4D2490012E9
:100CB30007F43D4B001207F4DC4B001207F4214C00
:100CC300001207F48B4C001207F49A4C001207F43D
:100CD300214F001207F4D350001207F440510012C1
:100CE30007F41F52001207F43853001207F4B554E7
:100CF300001207F4D454001207F42955001207F424
:100D03002E56001207F45656001207F4AE56001280
:100D130007F48D57001207F4D157001207F41C583B
:100D2300001207F48758001207F4C859001207F499
:100D33002C5A001207F47A5B001207F4DA5D0012F2
:100D430007F40B5E001207F4C35F001207F4186088
:100D5300001207F41C61001207F4B961001207F4D2
:100D63001262001207F4C562001207F467630012EF
:100D730007F40764001207F4AC64001207F4BB879E
:100D8300011207F4FA87011207F4418A011207F4EA
:100D93008B8A011207F4A68B011207F40E8C011241
:100DA30007F4438C011207F4B78D011207F43A904C
:100DB300011207F46391011207F4F991011207F488
:100DC300019B011207F4969B011207F47D9E011209
:100DD30007F4709F011207F4DE9F011207F424A1A8
:100DE300011207F406A2011207F4EBA3011207F4A0
:100DF300FCA5011207F466A6011207F438A7011235
:100E030007F466A7011207F423A8011207F4FAA84E
:100E1300011207F4C1A9011207F465AA011207F42C
:100E23008EAA011207F4B0AA011207F406AD01124B
:100E330007F4DEAD011207F422AE011207F48AAE05
:100E4300011207F442AF011207F474AF011207F461
:100E5300B8AF011207F4EEAF011207F43AB0011272
:100E630007F48FB0011207F494B0011207F4E7B04E
:100E7300011207F40CB1011207F41BB2011207F4BB
:100E83007FB2011207F4EFB2011207F47BB3011230
:100E930007F448B6011207F42CB7011207F4AFB8F0
:100EA300011207F4E5BA011207F493BB011207F428
:100EB30043BC011207F484BE011207F427BF0112D9
:100EC30007F46EBF011207F41AC1011207F42EC111
:100ED300011207F438C1011207F460C1011207F4CB
:100EE3006CC1011207F48BC1011207F4ABC30112E9
:100EF30007F4FAC4011207F43EC5011207F4E6C56C
:100F0300011207F4C9C6011207F474C7011207F4EA
:100F1300C0C8011207F4BEC9011207F464CA011262
:100F230007F4F4CA011207F40BCB011207F442CB06
:100F3300011207F44CCB011207F457CB011207F44B
:100F430075CB011207F4B9CB011207F416CC0112C9
:100F530007F43BCC011207F455CC011207F4E1CCA2
:100F6300011207F4FECD011207F46BCE011207F450
:100F730052CF011207F479CF011207F4EDCF01121A
:100F830007F468D0011207F46CD1011207F462D29E
:100F9300011207F411D3011207F424D4011207F448
:100FA300C0D4011207F44DD5011207F42BD6011258
:100FB30007F463D6011207F4BBD6011207F484D7F2
:100FC300011207F4A5D7011207F42CD8011207F474
:100FD30050D8011207F472D8011207F4BBD80112DA
:100FE30007F4D1DA011207F4B8DB011207F469DC64
:100FF300011207F49FDE011207F4EFDE011207F47A
:101003002FDF011207F471DF011207F4CDDF0112A4
:1010130007F4FBDF011207F41FE0011207F472E08B
:10102300011207F4A0E0011207F4D9E0011207F45A
:101033002EE1011207F494E1011207F4E8E2011230
:1010430007F40BE5011207F478E5011207F4A1E5B3
:10105300011207F42CE6011207F493E6011207F4D8
:10106300DEE6011207F402E7011207F426E7011294
:1010730007F481E7011207F49CE7011207F455E82E
:10108300011207F47DFA031207F4BCFA031207F402
:101093007880021207F4BE80021207F49E810212C6
:1010A30007F4A082021207F4A383021207F42F8528
:1010B300021207F48D85021207F44A86021207F41E
:1010C3006887021207F4D987021207F415880212FF
:1010D30007F46388021207F46D88021207F4B188DB
:1010E300021207F40D89021207F4A889021207F409
:1010F300258A021207F4F48A021207F48D8B021276
:1011030007F4AD8B021207F4E38B021207F4148C7D
:10111300021207F4D58C021207F4E58C021207F4CD
:10112300398D021207F4548D021207F4668D0212F0
:1011330007F46F8D021207F4C98D021207F4258E8E
:10114300021207F4718E021207F48C8E021207F456
:10115300BD8E021207F4DA8E021207F4E68E021233
:1011630007F45A90021207F47390021207F4DA900C
:10117300021207F4ED90021207F4FB90021207F437
:10118300AF91021207F49392021207F49993021299
:1011930007F42394021207F42D94021207F49A948D
:1011A300021207F4B194021207F4E394021207F453
:1011B3001C95021207F44695021207F4A795021232
:1011C30007F4C795021207F4E595021207F42B966C
:1011D300021207F45197021207F49E97021207F4C2
:1011E300CD97021207F44398021207F46B98021288
:1011F30007F4A498021207F4B298021207F40A99AA
:10120300021207F45999021207F49899021207F48B
:10121300C899021207F4F499021207F4FF99021213
:1012230007F41D9A021207F4DF9A021207F4E99AEF
:10123300021207F42A9B021207F47F9B021207F49F
:10124300939B021207F4A19C021207F4B49C0212AE
:1012530007F4C99C021207F46B9D021207F4EE9D7A
:10126300021207F4AC9E021207F4B79E021207F4AF
:10127300E39F021207F4FF9F021207F451A0021228
:1012830007F490A0021207F4A5A0021207F407A125
:10129300021207F496A1021207F4E1A1021207F465
:1012A30032A4021207F4B0A4021207F425A5021215
:1012B30007F447A7021207F45FA7021207F462A715
:1012C300021207F46EA7021207F482A7021207F4B0
:1012D3008AA7021207F4BDA7021207F46DA802122F
:1012E30007F4E3A8021207F456A9021207F40AAAA4
:1012F300021207F4BFAA021207F4DEAA021207F4CD
:1013030084AB021207F4AFAB021207F4B2AB0212C2
:1013130007F41CAC021207F444AD021207F41CAE2E
:10132300021207F4A7AE021207F4C0AF021207F4C9
:101333007DB0021207F4B6B0021207F4E7B002124E
:1013430007F4A5B1021207F4D5B1021207F4B0B243
:10135300021207F449B3021207F4D4B3021207F4DA
:1013630085B4021207F408B5021207F43AB5021263
:1013730007F47BB5021207F405F5021207F46AF5C8
:10138300021207F4A7F5021207F4F6F5021207F4A6
:101393000CF8021207F4EFF9021207F459FD0212D6
:1013A30007F494FD021207F4B6FD021207F419FEC6
:1013B300021207F44DFE021207F470FE021207F444
:1013C3009DFE021207F4F9FE021207F4278D0312A1
:1013D30007F4A58D031207F4DB8D031207F4478E80
:1013E300031207F4BA8F031207F4D68F031207F41C
:1013F30086D6021207F4A990031207F4029103128E
:1014030007F42F92031207F44193031207F49E93F8
:10141300031207F40A94031207F46B94031207F4FC
:10142300AC94031207F45995031207F46B96031255
:1014330007F49696031207F4E196031207F428972C
:10144300031207F4BA97031207F4BBDF021207F47F
:10145300A9DD031207F424DE031207F42FDE0312BF
:1014630007F450DE031207F4EC98031207F4F6981E
:10147300031207F44299031207F4B099031207F415
:10148300D199031207F4819A031207F4159D0312ED
:1014930007F41E9D031207F4719D031207F49A9D2E
:1014A300031207F4019E031207F4929E031207F43A
:1014B300D49E031207F41E9F031207F47D9F0312A9
:1014C30007F4A99F031207F43AA0031207F479A0C3
:1014D300031207F4B8A0031207F4EDA0031207F4F4
:1014E300FFA0031207F411A1031207F430A10312A2
:1014F30007F439A1031207F4EFA1031207F42FA293
:10150300031207F42BF8031207F480EA031207F41B
:10151300B6EA031207F4FFEA031207F44FEC0312CF
:1015230007F48FE8011207F4CEE9011207F40AEA7F
:10153300011207F4C9EB011207F4F2EB011207F4ED
:1015430085EE011207F4C9EE011207F452F00112FD
:1015530007F4EAF0011207F452F1011207F4F3F170
:10156300011207F435F2011207F475F2011207F4C0
:1015730000F4011207F470F5011207F495F7011254
:1015830007F4C3F7011207F4EAF7011207F4F3F7BC
:10159300011207F47AF8011207F498FB011207F419
:1015A300F1FB031207F407FC031207F432FA0312E8
:1015B30007F444DA031207F457DA031207F4F4DAF0
:1015C300031207F42FDB031207F44ADB031207F4B9
:1015D3006FDB031207F4B4DB031207F4E5DB03123A
:1015E30007F416DC031207F49CDD031207F48DF3F2
:1015F300031207F4C3F3031207F4DFF3031207F430
:1016030021F4031207F431F4031207F4C6F40312AE
:1016130007F4D0F4031207F4F3CA031207F4B8CBA8
:10162300031207F470CC031207F4AECC031207F4D1
:1016330068CE031207F4D4CE031207F449CF031282
:1016430007F40080031207F45580031207F43E8168
:10165300031207F4D781031207F42182031207F45C
:101663007E82031207F49282031207F4C4820312E8
:1016730007F4C283031207F40684031207F42184D8
:10168300031207F47084031207F48684031207F429
:101693009384031207F4C784031207F4E08403124C
:1016A30007F4AA85031207F40486031207F452868B
:1016B300031207F47486031207F4EB88031207F48A
:1016C3002089031207F4B089031207F4258A031251
:1016D30007F42A8A031207F4668A031207F4BC8A02
:1016E300031207F4808B031207F4A58B031207F48C
:1016F300AF8B031207F4B28B031207F43B8C031274
:1017030007F4568C031207F4698C031207F4A48CB4
:10171300031207F4A78C031207F4B28C031207F425
:10172300EE8C031207F4E5F9031207F4FDF9031233
:1017330007F494AB031207F4E3AB031207F485AD8C
:10174300031207F443AF031207F48BAF031207F43A
:10175300ADB0031207F4DEB1031207F400B20312B3
:1017630007F45CB2031207F4DEB2031207F4F86461
:10177300001207F41965001207F4A365001207F4B9
:101783002866001207F4A466001207F40D6700121E
:1017930007F45967001207F4D867001207F46A6860
:1017A300001207F4F668001207F43869001207F410
:1017B300A46D001207F4246F001207F4FA6F0012ED
:1017C30007F42970001207F41472001207F49474DA
:1017D300001207F44D75001207F46A76001207F43D
:1017E300C179001207F4D179001207F4327B001299
:1017F30007F4BE7B001207F4E77C001207F4D87DE0
:10180300001207F45A7E001207F48AE6021207F464
:1018130044E7021207F4B6E7021207F452E8021291
:1018230007F4C2E8021207F47BEB021207F452EC4E
:10183300021207F4BFEC021207F43CEE021207F4A3
:1018430006EF021207F476EF021207F43FF10212D9
:1018530007F452F2021207F4EBF2021207F4B1F3A7
:10186300021207F4A0CF031207F4F4CF031207F414
:101873004CD0031207F497D0031207F4F9D00312E4
:1018830007F465D1031207F418D2031207F459D2EF
:10189300031207F46FD2031207F4CBD2031207F437
:1018A30009D3031207F49AEE031207F4CBEE0312E3
:1018B30007F485EF031207F4EBEF031207F4F6E0E6
:1018C300031207F482E2031207F47CFB031207F40A
:1018D3008DFB031207F474F0031207F482F0031272
:1018E30007F4E5FF021207F4FEF8031207F40EF9FA
:1018F300031207F429F9031207F48AF9031207F410
:10190300F27E001207F4777F001207F4DB7F0012E8
:1019130007F419F7031207F43BF7031207F4A5F7CB
:10192300031207F4B0F7031207F4F4F7031207F4F2
:1019330007B8031207F415B8031207F456B80312D5
:1019430007F470B8031207F4EDB8031207F4E7B90C
:10195300031207F40CBA031207F429BA031207F4AB
:1019630046BA031207F46BBA031207F493BA0312CD
:1019730007F4DBBA031207F456BB031207F406BCE1
:10198300031207F43AD3031207F448D3031207F4FC
:10199300C2D3031207F4A6D4031207F45FD60312CB
:1019A30007F4CFFB031207F412B3031207F47EB359
:1019B300031207F43DB4031207F447B5031207F407
:1019C300A0B6031207F4FBB6031207F450B70312D1
:1019D30007F459B7031207F46BB7031207F4D5B72B
:1019E300031207F4E9B7031207F4F3B7031207F47A
:1019F30082C1031207F4D7C1031207F4D3C303123E
:101A030007F405C4031207F427C4031207F440C400
:101A1300031207F459C4031207F463C5031207F44E
:101A2300FEC5031207F42CF2031207F450F203125B
:101A330007F469F2031207F49CF2031207F4CDF2E0
:101A4300031207F4FBF2031207F45DF3031207F426
:101A53006CF3031207F476F3031207F483F3031210
:101A630007F42DE3031207F453E3031207F490E39F
:101A7300031207F49FE3031207F4BEE3031207F410
:101A830026E4031207F42FE4031207F48EE403128F
:101A930007F4B2E4031207F471E5031207F47EE5D9
:101AA300031207F48FE5031207F40AFB031207F48A
:101AB30027FB031207F475C6031207F4D3C70312F7
:101AC30007F4E0C7031207F4F3C7031207F412C8BD
:101AD300031207F428C8031207F43CC8031207F4DF
:101AE300B1C8031207F416C9031207F4C6C90312D7
:101AF30007F49BCA031207F4ABCA031207F4BACA6A
:101B0300031207F44CFF021207F470FF021207F4EA
:101B130098FF021207F4C0FF021207F4BDE5031297
:101B230007F4E4E5031207F405E6031207F46AE693
:101B3300031207F423E8031207F43CE8031207F443
:101B430048E8031207F45CE8031207F47AE8031287
:101B530007F484E8031207F48EE8031207F4A1E8FC
:101B6300031207F4F4E8031207F42DE9031207F450
:101B73005CE9031207F4AAE9031207F4F9E9031273
:101B830007F414EA031207F41EEA031207F42FEA18
:101B9300031207F475EA031207F494F9031207F426
:101BA30058A2031207F482A2031207F49EA203129F
:101BB30007F4B1A2031207F4C7A2031207F424A384
:101BC300031207F457A3031207F493A7031207F4AE
:101BD300B9A8031207F4ECA8031207F438A90312F7
:101BE30007F464AA031207F48CAA031207F4A1AA48
:101BF300031207F4B1AA031207F4F5AA031207F4B8
:101C030056AB031207F466AB031207F4D3F40312C3
:101C130007F4EEF4031207F417F5031207F431F592
:101C2300031207F456F5031207F475F5031207F4CC
:101C33008DF5031207F4BBF5031207F4D5F5031270
:101C430007F4C6FA031207F4C4D6031207F4CBD67B
:101C5300031207F4D7D7031207F407D8031207F4C4
:101C63002DD8031207F450D8031207F472D80312C5
:101C730007F4ACD8031207F412D9031207F44BD9B3
:101C8300031207F497D9031207F4C4D9031207F414
:101C9300E4D9031207F4B2EC031207F4CAEC0312FB
:101CA30007F4B8ED031207F497EE031207F406F6F0
:101CB300031207F478F6031207F4B6F6031207F4D7
:101CC300F7F6031207F419FC011207F438FC0112AA
:101CD30007F487FC011207F4A3FC011207F4D4FCF8
:101CE300011207F4E1FC011207F4EEFC011207F400
:101CF300DAFD011207F418FE011207F428FF01129E
:101D030007F433FF011207F445FF011207F44EFFF6
:101D1300011207F458FF011207F4C5BC031207F4BC
:101D23000AC1031207F418C1031207F4CDFF01120D
:101D330007F446FB031207F4A7FB031207F411FC95
:101D4300031207F4DAD5021207F420D4021207F4BF
:101D5300D0D1021207F457D1021207F4FED00212B7
:101D630007F48ED0021207F465D0021207F445CEB1
:101D7300021207F411CE021207F4DECD021207F4A9
:101D8300C2CD021207F4DBCC021207F493CC021289
:101D930007F4DECA021207F45ECA021207F45BCA32
:101DA300021207F458C9021207F426C9021207F4F3
:101DB30063C8021207F48EC6021207F41FC602128A
:101DC30007F4F1C5021207F43FDF021207F4F6DE4F
:101DD300021207F4AEDE021207F4FCDD021207F46E
:101DE3006EDD021207F4EEC5021207F4DBC5021220
:101DF30007F486C5021207F461DD021207F475C504
:101E0300021207F467C4021207F431C4021207F482
:101E1300DFC3021207F45BDA021207F475980312A8
:101E230007F480C3021207F44FC3021207F417C06A
:101E3300021207F4D7BF021207F4CBBF021207F452
:101E43002BBF021207F46BBE021207F4EDBB0212A2
:101E530007F47EB9021207F43CB9021207F410B872
:101E6300021207F4C5B7021207F404B7021207F40B
:101E7300D7B6021207F41AB6021207F4B0B502126B
:101E830007F4EAB5021207F4BDD7021207F41B9058
:101E93000300000080FBE4730001363601010001FA
:101EA300020100010301000104010606050200000E
:101EB300070100340801000F090401010D0100FFAF
:101EC3000E08000017020000190100FF1A010001AB
:101ED3001B0100FE1C0100081D0200001F01000180
:101EE30020010001210200002301000F2402000051
:101EF3002601000127010008280200FF2A0100072C
:101F03002B0102402C0100002D0100012E010001D4
:101F13002F0100FF30010B1C310800003A010008BB
:101F23003B01000F2F010000030271023001600228
:101F33001102700201020202020280021002610217
:101F43003A0041006302730272026202430200021A
:101F5300130238000002000204021202000200020F
:101F63000002000204020402370037003C0244026C
:101F730000023900000200026502000235028102FC
:101F83000002050282028302000203007100300195
:101F93006000110070003102200350048000100023
:101FA30061000000140063007300720062004300CC
:101FB30000001300060000000000040012000000EF
:101FC30000000000000004000400370037003C025A
:101FD3004400000000000000000065000000350020
:101FE3008100000005000000830000000304710469
:101FF30002046004110470040204020401040204D4
:10200300100461040004140463047304720462047E
:10201300430400041304060400040004040412042B
:1020230000040004000400045104640000040004DC
:1020330000044404000400040004000465040004D4
:1020430035048104640005040004830400040103CF
:1020530071030103010301030103010322030203CB
:102063000103100300030003000300030003000344
:1020730000034203000324030603000300030403D5
:10208300120325032303250323030403040300038B
:102093000003000344030003000323030003650359
:1020A300210035038103000305030003000300033C
:1020B300010171010101010111010101310101015D
:1020C30001018001100161013B00140063017301F0
:1020D3007201620143010001130106013D01350054
:1020E30004011201000100010001000104010401C7
:1020F300330133013C014401320136000001000188
:1021030065010001350081010001050182018301A0
:10211300000136000100060000000F00000000006F
:10212300000000000000000003FFFF00000403FFA5
:10213300FF0000FFFF0FF4010005C40403200001AA
:1021430000030B000000000000000003010F00006B
:1021530022181300C2170100221802008C17030073
:1021630092170400981705009E170600AA17FFFF91
:10217300000001C60D06F60D08F00D0B020E10420D
:102183000D02CC0D05E40D07D20D0CA80D0DBA0DF3
:10219300FF000003EAF5E5D5D5C5B5A59595858579
:1021A300757565655555454535352525151505CE93
:1021B30011FE11D411DA11F811EC11E61104120A0F
:1021C3001210121C12E011C811C21100160F0000E8
:1021D3000B150B020002220F32000006B812CA12BE
:1021E300D0129811D61292119E11D210CC10081150
:1021F3000E110211BA1012133013361318132413CD
:102203001E13303016181920231A1C1E300C0E0210
:102213000B040B0A0708000F00383C3E363B3B35E6
:102223002B432C303017181921301B1D1F30000190
:1022330019161816161523030000034948424D18B2
:10224300172505020613DC12E212EE12E812F21150
:1022530016122A1322122812020402010101010993
:1022630002DE10E410D8101411000000000000EA90
:1022730010FC1000BE040A0E00150004007F00E8E5
:10228300030C002800000000000308100C0A0308D8
:102293000900040001FF1E1E0C05040F1008C08274
:1022A300C0838A828B83E0D2E7F01216F0023418DF
:1022B300C082C083790012276D125484C082C08308
:1022C30090033412420AD083D082C3E09CA3E09DE2
:1022D300500C125B58FAA3E01222E46001090234A5
:1022E30018FBEA75F00BA4FAA8F075F00BEBA42821
:1022F300FB900336E02AF8A3E03B8882F583E054A1
:102303000F2274F7120360890812276D122813AC89
:10231300F075F00BE9A42CF9900336E028FEA3E056
:1023230039FF7401650860067402650870208A82AB
:102333008B831227FF1234E674026508701B122682
:10234300BE12284670138E828F83E4F0800BEA243A
:1023530003FCEB1227E11227EDEEFAEFFB120AD290
:1023630002345074F412036012647F79008E828FFA
:1023730083E06076890A890B8065E50A75F00BA412
:10238300FAA8F075F00BE50B1222F17046E50A7519
:10239300F00BA4F8AAF075F00BE50B1228258E823A
:1023A3008F83E08508828509831229078508828542
:1023B3000983A31234E6EE2403FCEF1227EA123456
:1023C3001F124EFEAA08AB09120AD27901900334F8
:1023D300124913E50A2401F50AE50B3400F50B1243
:1023E30026C6E50A9AE50B9B409002369074F512D7
:1023F3000360EAFEEBFF740B120A95123424750A8C
:1024030001EC4D602BEC12649BED1254841234DE0C
:102413007901120ADEE5084509606F85088285099E
:1024230083A31264897902AA08AB09120ADE805ACF
:10243300E5084509602B125488123B5212342012CE
:102443002830700CEEFAEFFB120AE4E9F50A80CBB0
:10245300EE2403FA12276870317903EEFAEFFB805A
:10246300CA8E828F83A3E064FE7003A3E0F4700B33
:10247300EE24030A0A0A122768700CEEFAEFFB1225
:102483000AE4E9F50A8003750A00A90A7F03020535
:102493007974F7120360900334123460EA4B602FAF
:1024A300EA75F00BA4FAA8F075F00BEBA428FBEA8D
:1024B300FEEBFF12151690033612346090033612AA
:1024C30047586012EEFCEFFD790012147A800790F2
:1024D3000336E4F0A3F0023450900334123EC2C337
:1024E300EE98EF9922C082C083EC4D6005121CC0A8
:1024F30080097C087D00790012147A02341874F67E
:102503001203607900EA4B6018780088081257CBF1
:10251300EB125B5460047901780808E8C39408401F
:10252300EA0234EF74F712036074F31208D3ECFE7B
:10253300EDFF851882851983E4F004120A95EAF009
:10254300A3EB124C847403120A95AC82AD83EEFAAA
:10255300EFFB120AF6EEFAEFFB120AFC02344B749D
:10256300F712036074F31208D3ECFEEDFF851882B3
:10257300851983E4F0EAFCEBFD7403120A95122932
:10258300007401120A951234DA8E828F831234E6B4
:1025930074FE68700374FF69600479018002790036
:1025A30002344B74F7120360EAFEEBFF1226047049
:1025B3001412260F8E828F83E0F4F88A828B83E0D5
:1025C30058F0120AD2A90802345074F7120360EAD1
:1025D300FEEBFF7508008E828F83E06022122604D3
:1025E300701D12260F8A828B83E08F838E82F8E020
:1025F30058700CE0F88A828B83E048F0120AD2808C
:10260300C4120AD8E9F50874016508221264941209
:102613002817122759FAA3E039FB2274F412036036
:102623008A088B097C007D001226BE1227ED122733
:102633007E1264867900850882850983A3E064FE9F
:102643007003A3E0F460717E007F008062EEFAEF16
:102653001222E46057EEFAEFFBEA75F00BA4FAA836
:10266300F075F00BEBA428FB900336E02AF50AA3E0
:10267300E03BF50B850882850983A3124BD2850ABB
:1026830082850B83A3E06A7003A3E06B701EE50AE7
:102693002403FAE50B122769700AE50A2403FCE513
:1026A3000B1227EA122772790112549A12305D1223
:1026B30026C6EE9AEF9B4095023690EA24030A0A57
:1026C3000AEB22900334125071C32274F312036095
:1026D3008A088B098A828B83A312648912276D125D
:1026E3006486750C001226BE12276970547E007F23
:1026F30000804912274BFAA3E0398A82F583E0541C
:102703000F603612274BF50AA3E039F50BE50A24CF
:1027130003FCE50B1227F43400FB121CBAE9640135
:102723007017850A82850B83A3125132A31234E6F4
:10273300122772750C0112549A12305D1224DC4078
:10274300B2A90C7F05020579EEF8EFF9E875F00BF5
:10275300A4F812275922AAF075F00BE9A42AF990DC
:102763000336E02822EF1228402212649AEB221249
:10277300277E125495EEF0A3EFF022E50812649B36
:10278300E5092274F5120360EAFEEBFF8E828F8364
:10279300A31264897C007D00EE24030A0A0AEF1267
:1027A30027EDEEFAEFFB120AD8E9F50A7401650A80
:1027B3007029126494122813AAF075F00BE91228F9
:1027C30025850882F5831227FF122830700DE5084E
:1027D3002403FCE5091227E11227ED02248D3400BE
:1027E300FDEE2403FAEF221227F43400FB120AF65B
:1027F300223400FDE5082403FAE50922A312280484
:102803002212280822E0F8A3E0F98E828F83A32204
:10281300122817223400F583123EC6E875F00BA484
:10282300F82212275FF508A3E039F50922E8F0A39F
:10283300E9F0E5082403FAE50912284022122846A4
:102843006401223400FB120AFCE92274F3120360D0
:1028530074E61208D312647F750C017508007509BC
:1028630000750A00750B00851882851983E4F0EE64
:102873002403FCEF3400FD7403120A95122900E9C6
:1028830064017023740B120A951234DE7401120A68
:1028930095124BD67003A3E06960518518828519A0
:1028A30083858208858309740D120A95E41229072A
:1028B300740E120A951234E6740D120A95AA82ABAD
:1028C30083120B1AE96401700B740D120A95858249
:1028D3000A85830B780A12082CAC08AD09EEFAEFCF
:1028E300FB120AEA740212083FE9F50CEEFAEFFB59
:1028F300120B14A90C741A12083F022746122BD389
:10290300120B202212345B123EC222C082C0837893
:1029130000790080031229FE1226C6E89AE99B502B
:1029230029E8FAE9FBEA75F00BA4FAACF075F00BB1
:10293300EBA42CFB900336E02AFCA3E03B8C82F54E
:1029430083E0540F70CF790080027901023418C0FC
:1029530082C08390227C123F18EC75F012A4FCA86D
:10296300F075F012EDA428FD79FF7A337B0B121476
:102973007A02341874F7120360E9FEEAFF7A007BE7
:1029830000780079008028E8FCE9FDEC75F012A4DA
:10299300FC85F00875F012EDA42508122E13C39ED2
:1029A300400AE0FCEFC39C4003122F321229FE12AF
:1029B3002E0740D3023450C082C083780079008050
:1029C300031229FE1229F2501F122E17F470F2E897
:1029D30075F012A4F8AAF075F012E9A42AF9743379
:1029E30028FA740B39FB80047A007B0002341890B8
:1029F300227C122EC8C3E89AE99B22E8240108E945
:102A03003400F92274F012036074F31208D38A0AB3
:102A13008B0B8C0C8D0D8908EC450D6016AA0CAB45
:102A23000D120B6E8A0E8B0FAE0EAF0FEE4F6003BF
:102A3300022AC5120B448A0E8B0FA80EA90FE8FEBB
:102A4300E9FFE849607C90228A122B2760227403F5
:102A5300650860067404650870167A047903120B1E
:102A63003E90228A122B3E40077A007B00022B24E1
:102A7300902288122B27601B74016508600674027C
:102A83006508700F7A027901120B3E902288122B8F
:102A93003E50D68518828519837401F0120A951267
:102AA3004EFEAC0CAD0D7403120A95122BCC740BB5
:102AB300120A9512342C1238C6E4124EE612101282
:102AC3008004EE4F604A780074FF2508C3940450D5
:102AD3000278048E828F83124EFE8E828F83A3A38D
:102AE300A3A3E508F0E88E828F83A3A3A3A3A31275
:102AF3004F0612020F122EDF8E828F83A3A3A3A38E
:102B0300A3A3A3F0122ED6120A7212547E120A7EC7
:102B1300122B2C400590108FE4F0120EECEEFAEF1E
:102B2300FB023ECC12502049227A047900120B3E5C
:102B330090227C125B3AEA98EB9922122B57758309
:102B43002275827CE493C398F8A3E49399F9C3EACA
:102B530098EB9922E493F8740193F92274F2120327
:102B63006074F31208D38A088B09ECFEEDFF750A33
:102B730000EEFAEFFB120B6E8A0C8B0DA80CA90D5D
:102B8300E849603E88828983E065087004A3E065B4
:102B930009602F88828983A3A3A3A3E0C39405506C
:102BA3002112532C8518828519837401F0120A951A
:102BB300125330EEFCEFFD7403120A95122BCC7501
:102BC3000A01A90A740D0249CA122BD3120B2C2233
:102BD300AA82AB83120AF6851882851983AA82AB6F
:102BE300832274F6120360122C21600FA3A3A3A304
:102BF300E014C3940450047901800279000234EF95
:102C030074F6120360122C21600FA3A3A3A3E01494
:102C1300C3940250047901800279000234EF120B4D
:102C2300688A828B83E58245832274F612036012DD
:102C33002C21600BA3A3A3A3E07004790180027984
:102C4300000234EFC082C083EAFCEBFD7A007B0014
:102C5300023415C082C0837C007D0002341574F4F5
:102C630012036074F31208D3EAFEEBFF8C0A8D0B98
:102C7300C3EC94F8ED94FF4007EE4F7003022D1A56
:102C8300750800750900802E8518828519837401E3
:102C9300F0123085120A9512309360137403120AEE
:102CA30095AC82AD83EEFAEFFB121CBAE97049E5ED
:102CB300082401122EB390227CE4125028E50898D0
:102CC300E509995052E50875F012A4F8AAF075F0D9
:102CD30012E509A42AF9125B6D60D4EE4F70A97452
:102CE300FF650A700474FF650B60C4123075650AD2
:102CF3007004A3E0650B70B7E50875F012A4F5083E
:102D0300A8F075F012E509A428F50974332508FA2B
:102D1300740B3509FB80047A007B0002368B74F454
:102D230012036074F31208D3750800120B6E8A0A3B
:102D33008B0BAE0AAF0BEE4F602A85188285198381
:102D43007401123455F8A3E0F9740B120A95123585
:102D530069120B0E7C127D0079FFEEFAEFFB121461
:102D63007A750801122B2C500990108F7401F01200
:102D73000EECA90802368B74F7120360E9FE74FEA9
:102D83006A700374FF6B7800790070058052122912
:102D9300FE122E07504AE8FCE9FDEC75F012A4FC84
:102DA300AFF075F012EDA42F122E13F460E0E8FCDF
:102DB300E9FDEC75F012A4FC75F012EDA42FFD747F
:102DC300332CF582740B3DF583E06A7003A3E06B4B
:102DD30070BC8009122E1714C3940440171229FEE5
:102DE3001229F25018EE70EC122E1764016005E000
:102DF300640370E9123066FAA3E0FB80047AFE7B79
:102E0300FF02345090227C123F1CC3E89CE99D22B0
:102E1300122F6722E8FAE9FBEA75F012A4FAACF084
:102E230075F012EBA42CFB74372AF582740B3BF577
:102E330083E022120B80023418C082C083790180A0
:102E4300F274F01203608A0A8B0B7A047901120B75
:102E53003E8A0C8B0DEA450D603EEAC333FAEB3331
:102E6300FB1215168A088B09AE08AF09EE4F6023D3
:102E73007AFE7BFF120B8674FE6A700374FF6B602D
:102E83001B850882850983123460E5082402122E0B
:102E9300B380E1750C0080047E007F00850A828583
:102EA3000B83E50CF0EEFAEFFB023ED1E5082407B5
:102EB300F508E5093400F5092290227C123F1CC372
:102EC300EA9CEB9D22E493FA740193FB2212146EA5
:102ED30074032212548FE4F090879922E88E828F34
:102EE30083A3A3A3A3A3A3A3A3122F017401122F4C
:102EF30001A3F0EE2410125492E4F0A3F02212384E
:102F0300D2A3A3A322C082C0837A007B00800419CA
:102F1300122F32122EBC5010122F51C3940550F0B1
:102F2300E970EC122F3B80047A007B00023418EA2C
:102F330024010AEB3400FB22EA75F012A4FA75F0BF
:102F430012EBA428FB74332AFA740B3BFB22EAFC32
:102F5300EBFDEC75F012A4FCA8F075F012EDA428BB
:102F6300122F6722FD74372CF582740B3DF583E035
:102F73002274F712036074F31208D37E007F0002F9
:102F83003019E50875F017A4F8A9F0125DCEFAA37D
:102F9300E0FBEEF8EFF9E875F012A4F8ACF075F089
:102FA30012E9A42C1230746A7003A3E06B603FE54E
:102FB3000875F017A4F8AAF0EA125DCDF8A3E0F9BA
:102FC3007401120A95E0687003A3E0696020E508C4
:102FD30075F017A4F8EAF974AF28FC740C39FD7482
:102FE30003120A95AA82AB83121CBAE96014E5089E
:102FF30075F017A4F8A9F074AD28FA740C39FB1214
:10300300101E050890228EE493F8E508C398500338
:10301300022F8512305D90227C1261145039EEF834
:10302300EFF9123066F47003A3E0F460E6851882CA
:103033008519837401F0EEF8EFF9E875F012A4F83E
:1030430075F012E9A42AF9123085120A9512309309
:1030530060C175080080AD02344BEE24010EEF34DD
:1030630000FF22E875F012A4F8AAF075F012E9A4A3
:103073002AF912307922743328F582740B39F583D7
:10308300E022743528F582740B39123EC0740B228A
:10309300E8F0A3E9123571120B26E922C082C0833E
:1030A30090033D74DEF0A3740DF090033F74D8F0E9
:1030B300A3740DF090034374F8F0A3740BF002347F
:1030C3001874F7120360EAFEEBFF900377E06408DD
:1030D300601BE0640460168E828F83E054036401F6
:1030E300704812341F1239C7E06406703D8E828F18
:1030F30083A3A3E064FE7003A3E0F4602D8E828FAC
:1031030083A3A31234DA900368E0687003A3E06931
:10311300700BEE2415F582EF125B546008120E8CCF
:10312300E9F5088008120E9280F67508C2EEFAEFF0
:10313300FB12151C0225C874F41203608A088B095C
:103143008A828B83E0F8A3E0FAE82AFAE43400FBEE
:103153001215168A0A8B0BAE0AAF0BEE4F6063850E
:103163000882850983E0FC7D00790012147A8E823F
:103173008F83A3A3126489120ECE8E828F83A3A39F
:10318300A3A3123460850882850983E0F8EE28F84A
:10319300EF34001234E2850882850983A3E0C0E09E
:1031A300EE240D125481D0E0F0120EE0EE240E1244
:1031B3005481E9124B33E0C0E0EE2411125481D064
:1031C300E0F0EEFAEFFB02369074F612036074EB54
:1031D3001208D3EAFEEBFF12475560030232707AFE
:1031E300077B00121516900339123460124755609D
:1031F300788E828F83120A7290033A1239CA120AA6
:103203007E12634DC0E012327CD0E0F0EE2405FA6A
:10321300EF3400FB8A088B098A82F583E0C0E01251
:103223003277D0E0123687E0C0E0123277A3D0E0E5
:103233001234CC120A72851882851983120A7E8889
:10324300828983E0C0E07405120A95D0E0F0850816
:1032530082850983E0C0E07404120A95D0E0F0741B
:1032630007120A951233B28006791080027901742D
:10327300150234EC12327CA322900339E0FAA3E066
:10328300F5838A82A3A3A3A322C082C083124755D6
:10329300600D90033912505F900339E4F0A3F012EC
:1032A3000DFC120FBE02341874F012036074EB129B
:1032B30008D3ECFEEDFF89087425120A95780C12E9
:1032C3000A387429120A95E0F9742A120A95E0FC67
:1032D300742B120A95E0FD740F697005740F6C600E
:1032E300129010D4E06402700579C10233ADE9C3D2
:1032F3009C40F6900378780C120A56E50890037EFA
:10330300F0E990037CF0ECA3F0ED90037FF074FF01
:103313006A700374FF6B701D9010DFE0F47003A3F9
:10332300E0F4700512148C800C9010DF123435E831
:10333300F0A3E98007900375EAF0A3EBF0EE4F608A
:1033430017EEFAEFFB12107EE96401700BEEFCEF4F
:10335300FD7A897B03121CC0900368E4F0A3F0900C
:10336300036BF0A3F0900388F09010D4E064027034
:103373000890037C740FF0A3F09003777405F014A6
:10338300120A95E4F0900378120A7285188285195F
:1033930083120A7E90037EE0C0E07405120A95D082
:1033A300E0F07407120A951233B27415023ECEE4AC
:1033B300123571121CEA22C082C083900338E07078
:1033C300031217BC120BC8804CC082C08390033811
:1033D300E090108E7004E4F0802D7401F0900338B7
:1033E300E0F460237C41E0C394415002E0FCECF83C
:1033F300E0C398F0EC75F0E8A4CCA8F075F003A452
:1034030028FD7A80123F247A8E7B107941121CD8D2
:103413008003120B74D083D0820207F1EE12549012
:1034230022E0F508A3E0F50922123430221228081D
:10343300A322123EC29003752274F7120360EB902D
:10344300037FF0120DEA8005740D12083F7F01021D
:10345300057912345BA3E0221234CCA322EAF0A351
:10346300EBF02274F712036074F81208D3EAFEEB50
:10347300FF7900900377E06408704485188285190A
:103483008374FDF0A374FFF0120EC87402120A9540
:103493001234607405120A95E412345BE0C0E074E0
:1034A30004120A95D0E01234C7C0E07406120A95DC
:1034B300D0E0F07407120A95E412356D120F0A7406
:1034C3000802344D1234CCE022F08E828F8322F036
:1034D30085188285198322123EC222E0F8A3E0F9FF
:1034E30012548FE8F0A3E9F02212083F7F0202058D
:1034F30079C082C0839003497488F0A3740CF09060
:1035030003EF7464F0A3740FF090034D74BEF0A343
:10351300740CF090034F7488F0A3740CF090035173
:1035230074C4F0A3740CF002341874F412036074BE
:10353300F91208D38A088B098C0A8D0B85188285AA
:1035430019837808120A567404120A95E9F074056F
:10355300120A95E4F07406120A95E412356D120B03
:10356300B0740702368DE8F0A3E9123571221234E4
:10357300D2AA82AB832274F41203608A088B098A6D
:10358300828B8312549DEE4F700302368590031293
:1035930012475860158A828B83A3A3E0F9EEFAEFF2
:1035A300FB9003131239CA121E998E828F83A3A331
:1035B300A3A3A3A3A3A3A3E0640270748E828F8347
:1035C300A3A3A3A3A3A3E054027003023657850861
:1035D30082850983A3A3E064E960798E828F83A344
:1035E300A3A3A3A3A3A3A3A3A3E070149010D7E062
:1035F300048E828F83A3A3A3A3A3A3A3A3A3A3F054
:103603008E828F83A3A3A3A3A3A3A3A3A3A3E01443
:10361300123687A3A3A37404F09010D8124ED8E8EF
:10362300F0A3E9125FB18B0BEA450B700312598FBC
:103633008E828F83A3A3A3A3A3A3A3A3A3E0640264
:1036430060128E828F83A3A3A3A3A3A3A3A3A3E048
:103653006406702E8E828F83A3A3A3A3A3A3E0A2E9
:10366300E0501F850882850983A3A3E0F9EEFAEFF2
:10367300FB121D7A8E828F83A3A3A3A3A3A3E0547B
:10368300FEF080091238CE22740D12083F7F040227
:10369300057974EC12036074DD1208D3EAFEEBFFC4
:1036A3008C088D097437120A95780C120A38750A3A
:1036B300007405120A95AC82AD83120AAE7412121D
:1036C3000A95E070087415120A95E06020740512DB
:1036D3000A95E0A2E6501E8E828F83A3A3A3A3A321
:1036E300A3A3A3A3124BD2120F40E96008790312DC
:1036F3001CA80238B47405120A95E0540C640470D3
:1037030005750B018003750B00E0A2E55035750AC2
:1037130001E50BA2E0402C120ECE8A108B11A810EB
:10372300A91112341FE0687003A3E06960157405E2
:10373300120A95126490124BCE121D86E960047929
:103743000480AC7405120A95E0A2E65022740612B6
:103753000A95E0540370187405120A95E0540C643A
:103763000C600CE0540C640860057510018003754F
:1037730010007405120A95E05403F8740268700C83
:10378300126490124BCE120AC00238B474016870EE
:103793003AE510A2E050031238BC7405120A95A84A
:1037A30082A9837403120A95E8F0A3E9123EB68551
:1037B30018828519831238C6E0C0E07402120A9594
:1037C300D0E012356D121E6A0238B4E86003023885
:1037D300B490035FE0640170108E828F83A3A3A370
:1037E300A3A3A3E070030237427422120A95740262
:1037F300123EB6741A120A951234E6E510A2E0508E
:10380300087405120A951238BCE50BA2E0506AEE63
:10381300240FF582EF125B54C0E07417120A95D09F
:10382300E0F090031412475870030238B4120ECE1E
:103833008A128B13A812A913741A120A95E06870DE
:1038430003A3E069706B780C120824780A1208301D
:10385300780812082CA910740C120A95AC82AD8357
:103863007421120A95AA82AB839003141239C712EA
:103873001E99740712083F8038780C120824780ABE
:10388300120830780812082C900375120648EE24AB
:1038930012F582EF1258827423120A95AC82AD831B
:1038A300740E120A95AA82AB83121D6E7409120854
:1038B3003F742312083F025F7C12649012506D1212
:1038C3000AB422E8F0A3E91238CE221238D222F049
:1038D3008E828F83A3A3A3A3A3A32274F7120360EF
:1038E3001216A802345074F71203601216AE023493
:1038F3005074F71203601216BA023450C082C083A8
:103903001216B402341874F71203601216C002348C
:103913005074F71203607409120A95E0F5087808E9
:103923001208301216CC740102344DC082C08312C7
:1039330016D8023418C082C0831216DE02341874FB
:10394300F71203601216E402345074F7120360EAAC
:10395300FEEBFF89087401650870147900120D00ED
:10396300902299E493FC7900EEFAEFFB120C7602B5
:10397300345074F412036074F91208D3E9FE8A0810
:103983008B098C0A8D0B7413120A95124BD2900576
:10399300A71247586027EE851882851983F07401B2
:1039A300120A957808120A56EAF8EBF97405120A16
:1039B300951235699005A71239C7121E990235640D
:1039C300FB90034BE0F8A3E0F583888222C082C01A
:1039D3008312171402341874F7120360901091E0E5
:1039E300F97E00800B125B40540D64017001190EC7
:1039F300123BD45003E970ED02345074F7120360A4
:103A0300901092E0F97E00800B125B40548D64812C
:103A13007001190E123BD45003E970ED0234507457
:103A2300F2120360890BE975F006A4240CF508E58E
:103A3300F0122EB78A0CE508250CFAE5093400FBD1
:103A43001215168A0C8B0DAE0CAF0DEE4F6027AC22
:103A530008AD09790012147A12341FE50BF0EE2534
:103A630008F8EF3509F98E828F83A3A3A3A3A3A339
:103A7300A3A3A31234E6EEFAEFFB0249CD74F612C8
:103A83000360EAFEEBFF120C52901090E0F8E9C3DA
:103A9300984009900345124BD2120C58EE2402F8B9
:103AA300EF1251E290034712509C900347E004F059
:103AB300EEFAEFFB120C5E850882850983E002565D
:103AC30098C082C0837900900345800109124BD2CC
:103AD3008A828B83E582458370F202341874F7126D
:103AE3000360EAFEEBFFEE4F605690034512475822
:103AF300604E888289837A007B00EE65827003EFD3
:103B03006583600FAA82AB83123B46E582458360DF
:103B13002F80E7900345123B52687002EF698E8253
:103B23008F8370081234DA9003458003125F8E127C
:103B330034E6EEFAEFFB121E3AEEFAEFFB12151C17
:103B4300023450123B4A22123EC6888289832212D3
:103B53003EC2EE22C082C0839003458004888289DE
:103B630083124758600B8882898312420AEC4D7096
:103B7300EC8A828B83E4F0A3F0E8496006888289AB
:103B830083800390034512346002341874F71203E0
:103B93006090034580048A828B83123BCF4B602560
:103BA3007E0080010E123BD450ECEE75F006A4FCAF
:103BB300ADF0EA2CFCEB3DFDEC2410F582ED123C5C
:103BC3002470E180047A007B00023450125071EAC1
:103BD30022123C2DEEC3982274F71203607D0080FD
:103BE300010D123C29EDC3985034ED75F006A4FE87
:103BF300A8F0E8FFEA2EFEEB3FFFEE2410F582EF7C
:103C0300123C2470DCED75F006A4FEE8FFEA2EFA00
:103C1300EB3FFBEA2411F582EB125B544CF00234C8
:103C230050125B606922123C2D2212649AEB34001D
:103C3300F583E0F82274F6120360120D787A007BA4
:103C4300008025EAF8EBF9E875F006A4F8ACF07506
:103C5300F006E9A42C12504612635BA3E412513C14
:103C6300F0A31263611264D8902284122B3640D3DE
:103C73007A007B00801C8A088B0974037808120978
:103C8300D4124AFAA374FEF0A304124F1CA3E41245
:103C930064D890228D123CD740DC7A007B00801DD3
:103CA3008A088B09740378081209D474D51257CC87
:103CB300740F12601374FEF0A3041264D89022935D
:103CC300123CD740DB902297E493900353F0123CCD
:103CD300E10234EFE493F8C3EA98EB9400227CE822
:103CE3007D037A107B009003C2E0F91215D0227491
:103CF300F012036074F51208D38A088B09890A8CC1
:103D03000BE9A2E050147508FC7509FFA2E1500508
:103D1300D2E4023DB4D2E3023DB41249B97003A325
:103D2300E06970057900023E81AC0A7902AA08AB0A
:103D330009120D54E960EDE50AF50C780C12083010
:103D430079027CFE7DFFAA08AB0912473412083FB3
:103D5300E96003023E7FE50AC2E5F50A9003B5E098
:103D63007051E50AA2E6404B7403120A95AC82AD8A
:103D730083AA08AB09120B02E970321240558A0C70
:103D83008B0DA80CA90DE8FEE9FFE8496025EE2498
:103D9300020A0AEF122846601AEE2402FCEF3400EE
:103DA300FD7403120A95AA82AB83121CC0E50AD2E2
:103DB300E5F50A900348E0F50C900368E0F50EA3DF
:103DC300E0F50F780E12082C7D017C00900348E08B
:103DD300F9AA0EAB0F120D0C740212083FE9F8900A
:103DE3000348E004F0E86003023E7FE50AA2E550E1
:103DF30004740E80027406C0E07401120A95D0E0C8
:103E03001254AE8A0E8B0FAE0EAF0FEE4F606912D7
:103E13003E9F123EB6888289837401F07478550AF6
:103E2300A31264A0E50C1264A0A3E508F0E509124F
:103E33003E8EE4F0E50AA2E5500F7403120A95AC36
:103E430082AD83E82406123E858E828F83A3A374FA
:103E5300FDF0A374FFF0E50B601590229AE493F84C
:103E6300E50BC3985009EE2413125481E50BF0EED1
:103E7300FAEFFB120BA480067910800279C7740B4A
:103E83008049FAE93400FB121CC02288828983A38B
:103E9300A3A3A3123E9A22125215A322EE241712B1
:103EA30054927401F0120EC8EE241A125492EAF0DE
:103EB300A3EB22F01264943400123EC022F5831265
:103EC3003EC622E0F8A3E0F922740D12083F7F08F2
:103ED30002057974F61203607A007B1012599C6014
:103EE300089003D47401F08029900648E06401909F
:103EF30010D57006E0FC79018004E0FC79037A00B8
:103F03007B00120C76902282123F187A007B1012EB
:103F13003F260234EF123F1C22E493FC740193FD0D
:103F2300227B009003C2E0F91215CA2274EC12033B
:103F3300608A088B098C0C8D0D890E7414120A95F6
:103F43001249137416120A95E0F510A3E0F5111245
:103F53000F40E960077AFF7BFF0240529010D4E0E4
:103F6300640260030240457900AA08AB09120D5AA6
:103F7300A90E120D4E8A128B13AE12AF13EE4F70B1
:103F83000302402D8E828F83A3A3A3A3A3E0640126
:103F93008E828F83A3A37069124BD28E828F83A3E9
:103FA300A3A3A3A3A3E054186043902298E4938EA1
:103FB300828F83A3A3A3A3F0EA650C7003EB650DC3
:103FC3006014EA650A7003EB650B600AEA6510701A
:103FD30003EB6511701F781012082CAC0AAD0BAA05
:103FE3000CAB0D12103C740212083F80089003675B
:103FF300125986A3F074FE6A700374FF6B601D8010
:104003004EA3A3A3E0640360298E828F83A3A3A39B
:10401300A3A3E0640470057AFE023F5A8E828F8365
:10402300A3A3A3A3A3E0640270089003B4E0640213
:1040330070101240558B0BEA450B6006AA08AB09BA
:10404300800DAA08AB099003491239C7121E9902C1
:104053005F7C90037512473A1210002274F7120323
:1040630060EAFEEBFF120B56E9700AEEFAEFFB1261
:104073000B62E96006EEFAEFFB80047AFE7BFF0237
:10408300345074F01203608A0A8B0B8C0E8D0F89E7
:1040930009750800120F40E9790060030241FCAA88
:1040A3000AAB0B120D5AA909120D4E8A0C8B0DAED9
:1040B3000CAF0DEE4F60198E828F83A3A3A3A3A32E
:1040C300E0640270559003B4E0640270030241FAA5
:1040D300AA0AAB0B90034F1239C7121E99120B6831
:1040E3008A0C8B0DA80CA90DE84970030241FA88CC
:1040F300828983A3A3A3A3A3E0A2E040030241FA1E
:10410300750C01A2E150687901AC0AAD0BAA0EABA4
:104113000F120CA6E970640241FA8E828F83A3A367
:10412300A3A3A3E064037005750C0280528E828FF3
:1041330083A3A3A3A3A3E0640160030241FA900352
:104143007512420A8E828F8312455F8A0C8B0DA8EB
:104153000CA90DE84960D1902291E493FA888289F1
:1041630083E0C39A50C2A3E060030241FA80B98896
:10417300828983A3A3A3A3A3D2E1F0EE4F603A8E77
:10418300828F83A3A3A3A3A3A3E05418602B750872
:10419300018E828F83A3A3120648750CFE750DFF53
:1041A300780C12082C7900AC0AAD0BAA0EAB0F12D7
:1041B3000D6C740412083F803E900368E0650E7036
:1041C30004A3E0650F7014902299E493FCA909AA53
:1041D3000AAB0B120C76750801801CA90CAC0AAD56
:1041E3000BAA0EAB0F120CA6E9700C750801A909F6
:1041F300AA0AAB0B120D00A908023ED1E50C241547
:10420300F582E50D125495124EF22274EA12036000
:1042130074F01208D38A0C8B0D8C088D0974261246
:104223000A95E0F514A3E0F5157512069003F5124F
:104233004758602390037512420AAA08AB0912106B
:104243002A8A108B11EA4511600D8A828B83A3E0C1
:1042530070057900024547E50C241DF50EE50D3484
:1042630000F50F850E82124744F51388828983A3D4
:10427300A3A3E0FA88828983A3A3A3A3E0F9EA2492
:1042830000FEE439FFAA08AB09120D06850E8285EC
:104293000F83124582E029F50BE50AA2E550037569
:1042A300120E7487550A70177418550A6418600F34
:1042B300E50C2417F582E50D125B5465126007794E
:1042C30001121CA8808C530A78C3EE94F8EF94FF74
:1042D300501D7900EEFAEFFB124551601288828976
:1042E30083A3A3A3A3A3A3E05418600302425578B6
:1042F3000812082C7D0012457512083FE9F8740373
:10430300687003024255E860030243C07418550AFB
:104313007003024475E50AD2E0F50AA2E45004D220
:10432300E1F50AA90A124BCB1245516053888289E1
:1043330083A3A3A3A3A3A3E054186044888289831F
:10434300A3A3A3A3A3E064017036E5104511603075
:1043530090037512420A8882898312455F8A0E8B05
:104363000FA80EA90FE849601788828983A3E0602C
:104373000F851082851183A31256A3500302425561
:10438300E50AF50E780E12083012456812083FE967
:10439300702B7C007D0085148285158374FFF0A348
:1043A300F0850C82850D83A3A3A3A3A3A3A3A3E0FA
:1043B30060031241FFA90B124BCB1216D285148254
:1043C300851583E0F47003A3E0F460399003B4E04F
:1043D30064027003024255124904E0FAA3E0123961
:1043E300C3121E99EA65087003EB65096003024274
:1043F30055EEFAEF1239C3121E998514828515837F
:10440300EAF0A3EBF0780812082C7D01124575122F
:10441300083FA90AEEFAEFFB120D5A8A088B09A886
:1044230008A909900368E0687003A3E069600302C8
:104433004538EEFAEFFB120B688A088B09A808A926
:1044430009E849606E88828983A3A3A3A3E064017A
:10445300600D88828983A3A3A3A3E06402705485BB
:104463001882851983AC82AD83EEFAEFFB120B023F
:104473008055900361E0600FE50AF50E780E12088F
:104483003012456812083FE50AF50E780E1208301F
:1044930079027CFE7DFFEEFAEFFB12473412083FF0
:1044A300E960030243C085148285158374FFF0A37A
:1044B300024407120EC8EAFCEBFD851882851983B6
:1044C300AA82AB83121CC0850C82850D83A3A3A390
:1044D300A3A3A3A3A3E06401700F1241FF74081206
:1044E3000A95AA82AB83121CC012470E12531A44B8
:1044F30030F50878081208307401120A958582088D
:10450300858309780812082C740B120A9585820892
:10451300858309780812082CE513F5087808120832
:10452300307900EEFCEFFD124BCB120CA074061297
:10453300083F02425512470E125484124582E50B7E
:10454300F0120EE0741012083F7F0E020579120D6F
:104553004E8A0E8B0FA80EA90FE84922A3A312506F
:104563007112102A227901AC08AD09125066124764
:104573003422AC0BA913125066120D0C74022212D2
:104583005322A3A3A3A32274F012036074F01208AE
:10459300D38A0C8B0DECFAEDFB750F089003F51223
:1045A3004758601412569C8A828B83E58245836048
:1045B30007A3E0700302470912470E340012474471
:1045C300F50B88828983124717E0FBEC2400FEE495
:1045D3003BFF88828983A3A3124717A3A3E0FBECC5
:1045E300F508E43BF50988828983A3A3A3A3A3A3C6
:1045F300A3E0F50EE50AA2E45003750F10A2E550FF
:10460300067408250FF50F748F550A700FE50C24F7
:1046130017F582E50D125B54650F60087901121CD2
:10462300A8024709530A707800E50AA2E45022124F
:10463300470E125B542408FCA3E03400FD740812F7
:104643000A95AA82AB83121CC07808E50AC2E4F576
:104653000AE50AA2E5502812470E125B5428F8A374
:10466300E03400F9E82408FCE93400FD851882856C
:104673001983AA82AB83121CC0E50AC2E5F50AAC12
:104683000EA90BEEFAEFFB120D12E9F87403686042
:1046930075900368E06E7003A3E06F605EE870548A
:1046A300E50AF50F780F12083012472512083FE983
:1046B3007054780A1208307401120A9585820C85A9
:1046C300830D780C12082C740B120A9585820C85C5
:1046D300830D780C12082CE50BF50A780A120830C2
:1046E300A90EAC08AD09EEFAEFFB120CA07406128A
:1046F300083F8012740468700D80B7780A1208307E
:1047030012472512083F7410023ECEE50C241DF516
:1047130082E50D22A3A3A3E0FC88828983A3A3A33C
:10472300A322790112490B12549512473A124734C6
:1047330022120CCA740122E0FCA3E0FDAA08AB0913
:1047430022F583123B4AA3E0F50A88828983A3A357
:10475300E0229003391250CD2274E812036074F5FD
:104763001208D3EAFEEBFF8C088D09891474231217
:104773000A95E0F50F7424120A95E0F512A3E0F50B
:10478300137426120A95E0F516A3E0F517742812A0
:104793000A95E0F50EA90F120D188A108B117401FA
:1047A300120A957408F0E50EA2E450037410F0E5C4
:1047B3000EA2E55004E02408F0851882851983AA27
:1047C30082AB83120F288A0C8B0DEA450D7003020E
:1047D30048EBEA2417F582EB1248FD120EC8E50CEC
:1047E300241AF582E50D1254841234607403120AFC
:1047F30095AC82AD83AA10AB11120B02E9601D12B6
:1048030048F57403120A95A882A983E50C2418F5C8
:1048130082E50D125484E8F0A3E98024E50EA2E4B6
:10482300501FE5106E7003E5116F70151248F5E522
:104833000C2418F582E50D125484E512F0A3E51358
:10484300F0124904124913850A82F5837402F0A316
:10485300E50E12491BE50FF0EE850A82850B83A353
:10486300A3A3F0EF850A82850B83A3A3A3A3124915
:104873001BA3A3A3E508F0E509850A82850B83A39F
:10488300A3A3A3A3A3F0AA10AB11120D06E9251449
:10489300850A82850B83A3A3A3A3A3A3A3F075080F
:1048A30000E50EA2E45011AC12AD13E50A2408FA98
:1048B300E50B123E87750808E50EA2E55014AC1609
:1048C300AD17E50A2508F8E50B3400F9E8240812CA
:1048D3003E85850C82850D83A3A3E510F0A3E51126
:1048E300F0AA0CAB0D120BA4740B12083F7F10023D
:1048F3000579E50C2416F582E50D1254957401F043
:104903002212490B12549522E50C12649BE50D22E9
:10491300E0F50AA3E0F50B22F0850A82850B83A359
:10492300A32274F21203608A088B09ECFEEDFF895F
:104933000A79001249B97003A3E069700479018010
:1049430073750B01900368E065087004A3E06509C3
:10495300601F750B00780B120830A90AEEFCEFFDFF
:10496300AA08AB09120F7C740112083FE9F50B800A
:10497300417900EEFAEFFB120D4EEA4B602B8A826F
:104983008B83A3A3A3A3A3A3E05418601C7508FE01
:104993007509FF780812082C8A828B83A3A3120659
:1049A300481262B012083F80097901EEFAEFFB1258
:1049B3000C28A90B8014120D5A8A0C8B0DA80CA974
:1049C3000D900368E0682212083F7F0602057974A0
:1049D300F412036075081D75090E7A10125FB88B07
:1049E3000BEA450B7003123CE1900353E014F070A3
:1049F3000C902297E493900353F0120D667E007F90
:104A030000806C850882850983A3A3A3A3E0605972
:104A1300F46056E5082404F582E5091259807049CB
:104A2300850882850983A3A3A3A3A3E06403701964
:104A3300790285088285098312420A8508828509DD
:104A430083A3A3124BD2120CA6850882850983A3E4
:104A5300A3A3A3A3E064016010850882850983747E
:104A6300FEF0A304124B2CE4F012305D122EAF9033
:104A73002286126114408C7E007F008039120E6EF4
:104A83008E088F09740378081209D474952508FCDD
:104A9300740F3509FD7AB27B0C120E5CEA4B70DDA4
:104AA3008E088F09740378081209D4124AFA126324
:104AB3005BE4F012305D90228DE493F8C3EE98EF3F
:104AC3009400501B8E088F09740378081209D412BE
:104AD3004B02E82407F582E912598070D680A17E43
:104AE300007F00800A124B0D600214F012305D1239
:104AF300611140F1023690124B028882898322743D
:104B0300952508F8740F3509F922EEF8EFF9E875E1
:104B1300F006A4F8AAF075F006E9A42AF97435287A
:104B2300F582740F39F583E022124B33A3A3A3223A
:104B3300F0850882850983A3A32274F712036074A6
:104B4300E11208D3ECFEEDFF750800EE4F60728AA8
:104B5300828B83E0241C1259B112475860638A8206
:104B63008B83124BD2851882851983AC82AD83EA7D
:104B7300241BF582EB125882EA241CF582EB124BBC
:104B8300CE120EB0740B120A95124BD67003A3E02B
:104B930069702E7402120A95E064017024741D1268
:104BA3000A951239C7E064017017741D120A951231
:104BB30039C9A3A3E0F88E828F83E0687003750878
:104BC30001A908741F02344D12490B3400F58312F6
:104BD300507122122804E0682274F4120360E97011
:104BE30024790090034D1239C7121E998A0A8B0B40
:104BF300AE0AAF0B74FE6E700374FF6F701A9022CF
:104C030094E4936013790190034D1239C7121E99EE
:104C13008A0A8B0BAE0AAF0B120EEC0231C574F687
:104C230012036074F31208D312148C8A088B09AE32
:104C330008AF09900368E06E7003A3E06F60E912A8
:104C43000ED4EA6E7002EB6F60DEEEFAEFFB120F2A
:104C530040E970D4EE4F60D0851882851983E4F063
:104C630004120A95EEF0A3EF124C84E970BA74FEB5
:104C73006E700374FF6F60B0EEFAEFFB740D0234D5
:104C8300EC123571120B1A22C082C083120EEC0291
:104C930034187F0A02057974F2120360EAFEEBFF0F
:104CA3008C0A8D0B8908740E120A95E0F50974FCC1
:104CB3006E700374FF6F700579000249CD7900129D
:104CC3000D5A8A0C8B0DAE0CAF0D900368E06E701D
:104CD30003A3E06F7006E509A2E650DCA90912619F
:104CE3009E706179007AFE7BFF12619E7056741884
:104CF30055097003024DD17800790080031229FE13
:104D03009022861229F54003024DD1E8FAE9FBEA25
:104D130075F007A4FAACF075F007EBA42CFB742331
:104D23002AF582740E3BF583E0541870D0E875F0D1
:104D330007A4F8AAF075F007E9A42AF9741D28F866
:104D4300740E39F988828983A3A3A3A3A3A3E05490
:104D5300186009741855097003024CBB8882898353
:104D6300EEF0A3EFF074FE650A700474FF650B6048
:104D730003124EF888828983A3A3A3A3A3A3E509FF
:104D8300F0A2E0500D88828983A3A3A3A3A3A3D297
:104D9300E2F07401650888828983A3A3A3A3A370A7
:104DA300387401124F1CE054186028902298E49341
:104DB30088828983A3A3A3A3124EE612102A8B0D24
:104DC300EA450D6003024CBB780079008039790213
:104DD300024CBD900367E080D7E064017003024C8E
:104DE300BB88828983A3A3A3A3A3A3E0541860076A
:104DF300902298E4938004900366E0123E8EE508C7
:104E0300F0024CBB1229FE90228EE493FAC3E89A77
:104E1300E994004003024CBB7A007B00804BEAFC20
:104E2300EBFDEC75F007A4FCAEF075F007EDA42ED6
:104E3300FD741F2CF582740E3DF58312549DE8FC1E
:104E4300E9FDEC75F017A4FC85F00975F017EDA4E6
:104E53002509FD74AD2CF582740C3DF583E06E706D
:104E630003A3E06F609E122F32902286122EBF4062
:104E7300AD123F18EC6A7002ED6B7088E875F0179D
:104E8300A4F8AAF075F017E9A42AF974AD28FE7402
:104E93000C39FF7C177D007900EEFAEFFB12147AD0
:104EA3008E828F83124EFE900375124ED8A3A3A356
:104EB300A3A3A3E8F0A3E9124EDE7401F0EE240EDF
:104EC3001254817401124F0612020FEE240D125474
:104ED30081E8024E03123430A3A322F0EE240F1212
:104EE300549222F0124EEFAA0AAB0B22900375E004
:104EF300FCA3E0FD2288828983A3A3E50AF0A3E54E
:104F03000BF022F0124F0B22902291E4932401F82C
:104F1300E43400F97A027B0022123E9AA32274ED54
:104F23001203608A088B09890E12504F40057905D8
:104F330002501D12171AAA08AB091251219022849C
:104F4300125020650A7003E9650B70077AFE7BFF38
:104F5300125121902284E4125028E50A98E50B9916
:104F6300400302501B12502C6012E50A75F006A490
:104F7300F875F006E50B12507712151CE50E601854
:104F8300E50A75F006A4F8AAF075F006E50B1250D1
:104F9300A3701A790102501DE50A75F006A4F8AA58
:104FA300F075F006E50B125084E4F0A3F0E50A7502
:104FB300F006A4F8AAF075F006E50B125044A3120C
:104FC300533088828983A3AA82AB831250928A8248
:104FD3008B83E0603F12502C603A8E108F11751254
:104FE300007810120828E50EC333FCE433FDE50A0C
:104FF30075F006A4F50AA8F075F006E50BA428F5EC
:105003000B7439250AF582740F350B124BD0122E0F
:10501300D012083F7900800279070261B4122B573E
:10502300E82290227C125B3B22E50A75F006A4F885
:10503300AAF075F006E50B12507FF8A3E0F9E849F2
:1050430022A42A1251D888828983A322ECFEEDFF81
:1050530090228FE493F8E9C39822F58312507112DA
:10506300151C22E50C12649BE50D3400F583E0FA70
:10507300A3E0FB2212507FFAA3E0FB22125084E04C
:1050830022A42AF9743928F582740F39F58322E5AD
:105093000EF09010D612509C22E088828983F02271
:1050A3001251FCF50CE93400F50DE50EC333FAE4B7
:1050B30033FB121516850C82850D83EAF0A3EBF002
:1050C300850C82850D831250CD22123EC6E84922FB
:1050D30074F4120360ECFEEDFF740C120A951234A3
:1050E300DA88088909125121AC0AAD0BECF8EDF905
:1050F3009022841251295021E875F006A4F8AAF0F1
:1051030075F006E9125044E08E828F8312513C12EF
:1051130051321234E6790080027904023690120C7F
:10512300DC8A0A8B0B22122EC8C3EC9AED9B221247
:105133003EC2850882850983221252112274F61217
:1051430003607E007F008028EEF8EFF9E875F00633
:10515300A4F8ACF075F006E9A42CF9743728F582AD
:10516300740F125DBF6A7003A3E06B605712305D6A
:1051730012611140D312610C7002E96F704674FE24
:105183006A700374FF6B703C7E007F0080031230F3
:105193005D126111502E124B0D70F3EEF8EFF9E82A
:1051A30075F006A4F81251CE12520360171251EA99
:1051B300F8E91251E2888212505D850882850983DD
:1051C300E4F0A3F0EEFAEFFB0234EF75F006E91218
:1051D30051D622A42AF9743528F8740F39F92234E8
:1051E30000F98808890922EEF8EFF9E875F006A4BA
:1051F300F875F006E91251FC221251D6E824042274
:10520300A3A374FE12520E1250CD22F0A304125225
:105213001522F088828983A3A3A3A32274F6120321
:1052230060EA241DF582EB12531AF9604BEA241D40
:10523300F582EB125B542402FCA3E03400FD125010
:1052430053400302530D780080298C828D83E0F54F
:1052530008A3E0FFE5082400E43FF509E833FEE492
:1052630033FF747D2EF582740F3FF5831253301292
:10527300531008E8C39940D28A828B83A3A3A3A3C4
:10528300A3A3A3A3A312420A900368E06C7003A331
:10529300E06D700F7C7D7D0F12276D124BCE120CCB
:1052A300D08067EA2411F582EB125B54605CFC74D6
:1052B300FF2CF0750801780812083075087D750910
:1052C3000F780812082CE9F5087808120830EA2448
:1052D30012F582EB125B54F5087808120830EA24C1
:1052E30015F582EB125484120648ECF912276D125D
:1052F30042078A828B83A3A3A3A3A3A3A3A3A3127B
:105303004BD2120CE8740712083F0234EFEC24026C
:105313000C0CED3400FD22125495125322E022E0CE
:10532300F8A3E0F5838882A32288828983E508F0C5
:10533300A3E509F02274EA12036074FD1208D38A0C
:10534300148B158C0E8D0F890D7419120A95125436
:105353009D741B120A95E0F511741C120A95E0F571
:105363000C741D120A95124913741F120A95E0F565
:10537300106008E50CC333240480027402C0E07497
:1053830001120A95D0E01254AE8A088B09EA450946
:1053930070030254798A828B83A3A3E514F0A3E5F7
:1053A30015125FA7E50EF0A3E50FF0EA2413F582CB
:1053B300EB125484E50DF0EA2414F582EB125484C5
:1053C300E511F0EA2417F582EB125B546401704097
:1053D300120ECE8A0E8B0FA80EA90F85088285099F
:1053E30083A3A3A3A3E0687003A3E0696022EE4F45
:1053F3006011E508241AF582E509125484EEF0A33E
:10540300EF800CE5082417F582E509125484E4F0D3
:1054130012548812549D8E828F837405F0A3E51075
:105423007004E50C80487401250C1254A77A00809F
:1054330028850A82850B83E01254A3850A82850B93
:1054430083A3E08E828F83F0E50A2402F50AE50B3D
:105453003400F50BA30EAF830AEAC3950C40D212B6
:105463000ECEEA1254A3120ECEEB8E828F83F0AAD5
:1054730008AB09120BA47403024549EE240CF58210
:10548300EF1254952212277E12549522EE240BF527
:1054930082EF3400F58322900334E0FEA3E0FF2281
:1054A3008E828F83F0A3AE82AF8322123571120FE7
:1054B3002822C082C083E9C333FCE433FDEA2CFA1B
:1054C300EB3DFBEA24FEF582EB34FF124BD00234B2
:1054D3001874F212036089098A0A12504F40047942
:1054E30000804075080080020508E508C39509504F
:1054F3002AE508C333F8E433F9EE28F582EF39F5EA
:1055030083C082C083120ECE8A0C8B0DD083D082CF
:10551300E0650C7004A3E0650D70CDE50A650870C5
:10552300BE79010249CD74F012036074F31208D3FB
:105533008A088B098C0A8D0B890C750D00120F409C
:10554300E97900600302562BAA08AB09120D5AA988
:105553000C120D4E8A0E8B0FAE0EAF0FEE4F700373
:105563000256298E828F83A3A3A3A3A3A3E0A2E25F
:105573004003025629120ECEEA650A7003EB650B4F
:105583007011780D120830E4F50EF50F780E12083D
:105593002C8044AA0AAB0B120B5CE964017068858A
:1055A30018828519837404F07401120A95124EFE51
:1055B300851882851983AA82AB83120B1AE96401C9
:1055C3007045750D01780D120830E4F50EF50F786E
:1055D3000E12082C750D00780D120830780D120884
:1055E300307408120A9585820E85830F780E12088F
:1055F3002C90229AE493F9AC0AAD0BAA08AB0912DA
:105603000CE8740712083F8E828F83A3A3A3A3A37E
:10561300A3E0A2E1400D8E828F83A3A3A3A3A3A340
:10562300C2E2F0750D01A90D023ECC74F6120360BF
:10563300E9FE7900120D5AEEF9120D4E8A088B0914
:10564300A808A909E84960061264E2F9800279040E
:105653000234EF74F61203607E0790035CE070344B
:1056630012569C8A088B09A808A909E84960259065
:105673000361E0640188828983A3A3700B1256A39C
:10568300888289835001A3A3E0F9121048E9FEEE52
:1056930070027E07EEF90234EF124EEF12102A2247
:1056A300E0FA88828983A3E0C39A2274EE1203602E
:1056B300EAFEEBFF890A8C0C8D0B7412120A951209
:1056C30034241257781250565051890E750F0074B6
:1056D30003780E1209D4749B250EF582740F350FCF
:1056E300F583E0F8E50CC398502DE50B60247511A4
:1056F30000740378101209D474952510F8740F35CB
:1057030011F988828983A3A3A3A3A3A3E50C12574A
:1057130082F07900024C95790380F979007AFE7B57
:10572300FF125778E49365107004790280E6E50B65
:1057330060E0890E750F007403780E1209D4749516
:10574300250EF8740F350FF988828983A3EEF0A331
:10575300EF125782124F1CE50C123E9674FF126330
:1057630061E50AF0900366E088828983A3A3A3A37B
:10577300A3A3A3809C120D48E9F51090228D221259
:1057830064A4A3E508F0A3E5092274F6120360EC10
:10579300FF120D4890228D12505650278908750923
:1057A30000740378081209D4749A1257CC740F1238
:1057B3006013E0F8EFC3985006EFF07900800679A4
:1057C30003800279040234EFEA2508F5822274F497
:1057D300120360EAFEEBFF120D48E9F50A90228DF1
:1057E3001250565019750B007403780A1209D474B9
:1057F30098250AF582740F350B124BD0801890034D
:105803004B124758600CEEFAEFFB1239CA121E997D
:1058130080047AFE7BFF02369074F61203608A825C
:105823008B83A3A3A3A3A3E4F0F88001089022939E
:10583300E493F9E8C399501E880812587A8C828D34
:1058430083A3A3A3A3A3A3A3A3E06970DFECFAED4F
:10585300FB120E74801EE4936870198C828D83A3EF
:10586300A3A3A3A3A3A3A3A37406F07A008C828D9E
:10587300831259A50234EF741D2508F582741012A2
:105883005B60F92274F4120360EAFEEBFF8E828FF1
:1058930083A3A3E0141259BCA3E0F9120E508A08A3
:1058A3008B09EA4509700302597D8E828F83A3A376
:1058B300E070358A828B83A3A3A3A3A3A3A3A3A38B
:1058C300E064028A828B83A3A3A3A3A3A3A3A3A3BA
:1058D30060107406F07AF08508828B831259A50252
:1058E300597D7406F002597D8E828F83A3A3A3A3EF
:1058F300A3A3E060738E828F83A3A3A3A3E0607A44
:10590300EE2403F582EF125980706F9003551259FC
:10591300861259BCE014125F9EE06403705C8E82B1
:105923008F83A3A3A3A3E0700DAC08AD09EEFAEF38
:10593300FB120D1E80448A828B83A3A3A3A3A3A37C
:10594300A3A3A37404F012148CEA540F04850882F1
:10595300850983A3A3A3A3F0A3E4F07A20FB125940
:105963009C701712598F80128A828B83A3A3A3A3DF
:10597300A3A3A3A3A3E0640360AF023690125B600A
:1059830014F022E08E828F83A3A3A3227A207B00CC
:105993009003C2E0F91214CE22125FBA8B09EA45D2
:1059A3000922E0240C1259B1E0F9120D9622F8A352
:1059B300E03400F988828983221259C1A322123468
:1059C300CCA3A3A32274F612036079007E00802582
:1059D3008E08750900740378081209D474D5250854
:1059E300FA740F3509FB8A828B83A3A3E060051247
:1059F3000D2479010E902293E493F8EEC39840D0DE
:105A0300E9A2E07A407B009003C2E0F95015121539
:105A1300DC8B09EA4509700E7C647D007A40123CF8
:105A2300E780031215D60234EF74F4120360ECFE20
:105A3300EDFF7508D575090F7C00804585088285C3
:105A43000983A3A3A3A3A3A3A3E0F8EA2412F582E3
:105A5300EB125B5468701F8508828509831234DA60
:105A6300125B58687003A3E069700B85088285098F
:105A730083A3A3E070200CE5082408F8E50912517C
:105A8300E2902293E493F8ECC39840B0E4936C70F3
:105A9300057900023690850882850983A3A3A3A311
:105AA300A3A3E07004790180EA1261AC1210008BA9
:105AB3000BEA450B600F850882850983A3A3A3A383
:105AC300A3A3E014F07C0080010C8C0A125B2E501F
:105AD30020EC125B6660F21230756E7003A3E06F08
:105AE30070E7850882850983A3A3A3A3A3A3E01476
:105AF300F090228EE493F890227CE49328F8A3E4B8
:105B0300933400F9850882850983A3A3A3A3A3A3E0
:105B1300E0FAC3E89AE99400508B850882850983EB
:105B2300A3A3A3A3A3A3E4F0025AA890227C125B2D
