:020000040000FA
:06000000020A820201C7A2
:03002B000208BD0B
:030033000206D9E9
:030043000207723F
:030053000200F8B0
:03006B000206BFCB
:1000830002015C0101FF05030148104810481048B4
:1000930010040FFE0E4810FF1D00000000C31E00D9
:1000A3000000000C0000000C00010000161200000C
:1000B30000000000D012000000000000000000005B
:1000C300FFFF010101002E050000007F05E8036426
:1000D300006400B801020200080000050207051EC3
:1000E30002051E0A03B80B020102F1FF0296511822
:1000F3000002020612C0E074F21203E0A2AFE4337E
:10010300FED2AFE5A7FFE5A1F5085F541060061224
:10011300192475A1EFE5085F5408600812192A75C0
:10012300A1F7802BEFA2E0C0D0E508A2E092F01285
:1001330009BF158182F05017906198E0F890085834
:10014300E0C398A2D265D0335002E8F075A1FEEE69
:10015300A2E092AF7F0102043FC0E074F21203E019
:10016300A2AFE433FED2AF9061A4E0F8759B00E543
:100173009158540860087591F7121972802AE59115
:1001830058541060087591EF121978801BE8A2E0AB
:10019300C0D0E591A2E092F01209BF158182F05020
:1001A30007E0C2E0F0121ABC9061A3E0F8E5E95859
:1001B3005404600E121A9275E9FB906193E0A2E673
:1001C30040F2808BC0E074F21203E0A2AFE433FE8E
:1001D300D2AF9061A5E0F8E5BF585404600675BF3F
:1001E300FB121AD4020152C3E498F8E499F91202FB
:1001F3002B8026C3E49AFAE49BFBE920E7E9120289
:100203002BE498F8E499F922C3E498F8E499F912F5
:10021300022BE498F8E499F9C3E49AFAE49BFB22ED
:10022300EB20E7CFE920E7E0B90010BB0008E88A3C
:10023300F084F8AAF022E4FBC8FA22EB70227B10C8
:10024300C833C8C933C9335007C39AC3DBF2800626
:100253009A50012ADBEAC833F4C8C933F4C9FA2235
:1002630075F008E4C833C8C933C933C99AC99B5068
:1002730004C92AC93BD5F0ECFBC833F4C8E4C9FA76
:1002830022080808EAC0E0EBC0E086F0E7A4FA1809
:100293000986F0E7A42AFA180986F0E7A42AFA18CF
:1002A3000986F0E7A42AFA1986F0E7A4FBE5F02A09
:1002B300FA190886F0E7A42BFBE5F03AFA19088649
:1002C300F0E7A42BFBE5F03AFA18180986F0E7A447
:1002D300C5F02BFBE43AFA1908E7C5F0C6A426F6E5
:1002E300E5F03BFBE43AFA1886F0E7A4F6E5F008FC
:1002F30026F6E43B08F6E43A08F6D0E0FBD0E0FA51
:1003030022E4CFC0E0E4CEC0E0E4CDC0E0E4CCC062
:10031300E075F020C3E633F608E633F608E633F675
:1003230008E633F6181818EC33FCED33FDEE33FE14
:10033300EF33FFC3EC9709ED9709EE9709EF971990
:100343001919400FFFEC97FC09ED97FD09EE97FE95
:10035300191906D5F0BEECF709EDF709EEF709EF29
:10036300F7191919D0E0FCD0E0FDD0E0FED0E0FF92
:10037300222518C582C0E0E51934FFC583C0E0E536
:1003830018C3958224F810AF0885831985821880D5
:1003930008858319858218D2AFCEF0A3E520F0A398
:1003A3007808E608F0A3DEFAEFF0A3E58124FAF873
:1003B300E608F0A3E608F0A3E608F0A30808E608B9
:1003C300F0A3E608F0A315811581D0E0FED0E0F894
:1003D300158115811581E8C0E0EEC0E022C0D0256B
:1003E30018C582C0E0E51934FFC583C0E0E518C332
:1003F300958224F310AF08858319858218800885B8
:100403008319858218D2AFC8F0A3E9F0A3EAF0A359
:10041300EBF0A37908E709F0A3D8FAECF0A3EDF029
:10042300A3EEF0A3EFF0A3D0E0F0A3D0E0F0A3D0CD
:10043300E0F0A3E520F0A3E5F0F0A322851983857E
:100443001882E0C0E0A3E0F9A3E0FAA3E0FBA378FD
:1004530008E0F608A3DFFAE0FCA3E0FDA3E0FEA3B7
:10046300E0FFA3E0C0E0A3E0C0E0A3E0F5D0A3E099
:10047300F520A3E0A3F5F010AF0885831985821852
:100483008008858319858218D2AFD082D083D0E0CB
:10049300F8D0E032120AE4B900030204D9E490036D
:1004A3000178AF790A8002F0A3D8FCD9FA900CAF97
:1004B300AA82AB83900086787379018015E493A3B5
:1004C300AC82AD838A828B83F0A3AA82AB838C82B6
:1004D3008D83D8E9D9E77582407583FD74021208CC
:1004E3003575826875831D74001208350875F01020
:1004F3008E1A8F1B85821F85831E8518828519831B
:10050300E0CEA3E0CF851F82851E83EBC9EAC8ED49
:10051300CBECCAC3E833C8E933C9EA33CAEB33CBFC
:10052300C3EA9EF51DEB9FF51CB35004AB1CAA1D3B
:10053300EC33CCED33CDD5F0DAAE1AAF1B22D0833A
:10054300D082ECC0E0EDC0E0E493A3FCE493A3FD10
:10055300ED4C600D120619EC24FFFCED34FFFD8019
:10056300EFE493A3FCE493A3FDED4C600D12071D90
:10057300EC24FFFCED34FFFD80EFD0E0FDD0E0FC88
:10058300E493A3C0E0E493C0E02285198385188235
:10059300E0A3FEE0A3F5207808E0A3F608DFFAE085
:1005A300A3FFE0A3C0E0E0A3C0E0E0A3C0E0E0A3BA
:1005B300C0E0E0A3C0E010AF0885821885831980EE
:1005C30008858218858319D2AFD083D08202083B75
:1005D300D083D082E9C0E0E493A3C386F0C5F0954D
:1005E300F0F908E493A386F0C5F095F0700BE4935B
:1005F300A3C3994005E9048002A3E475F002A4258E
:1006030082F582E5F03583F583D0E0F9E493A3C066
:10061300E0E493C0E022C0E0C3E49396087401933E
:100623009618400FE4936670080874019366187077
:10063300007019A3A3C3E49396087401939618A3B7
:10064300A3400DD0E0D0E0D0E002057DA3A3A3A397
:10065300A3A3D0E022D083D082C5F0E493A3C5F056
:10066300C395F0F5F0E493A3C395F04005E5F004DA
:100673008001E475F002A42582F582E5F03583F567
:1006830083E493A3C0E0E493C0E022740480047481
:10069300028000CCC0E0EDC0E0E518C39CCCAD19EE
:1006A30050011D10AF068C188D1980068C188D19FA
:1006B300D2AF1207B7D0E0FDD0E0FC22C0E074F265
:1006C3001203E0E589A2E150031217FE758900C207
:1006D300C57F0102043FC0E074F21203E0E58BA280
:1006E300E050031217FE758B00C2E880E4740280A9
:1006F30000CCC0E0EDC0E0E518C39CCCAD195001BF
:100703001D10AF068C188D1980068C188D19D2AF69
:10071300120795D0E0FDD0E0FC22C0E0C0F088F0E5
:10072300E4936670080874019366187000A8F0A338
:10073300A3700BD0F0D0E0D0E0D0E002057DA3A3FE
:10074300D0F0D0E022D083D082CCC0E0E493A36089
:10075300061208161470FAE493A36006120907142C
:1007630070FAD0E0FCE493A3C0E0E493C0E022C0BD
:10077300E074F21203E0A2AFE433FED2AFC2C0E5ED
:10078300D1A2E4500312189AEEA2E092AF7F0102C5
:10079300043FCAC0E0E493A3C582CCC582C583CD20
:1007A300C583F0A3C582CCC582C583CDC583DAE5F5
:1007B300D0E0CA22CAC0E0E0A3C582CCC582C5830B
:1007C300CDC583F0A3C582CCC582C583CDC583DAED
:1007D300E6D0E0CA22700908080822601618181823
:1007E300C6C333C608C633C608C633C608C633C62F
:1007F300D5E0EA22C008C3E096F50808A3E09642D4
:100803000808A3E096420808A3E09645087001D3C0
:10081300D00822C0E0E493A3D39C5010E493A3C375
:100823009C400AD0E0D0E0D0E0020765A3A3A3D0A8
:10083300E022C09FF59FE473D09F22D083D082C073
:100843009FE493C0E0740193C0E0740293F59F2288
:100853007404800A74038006740280027401C0E089
:10086300F40412086ED0E0120ABF222518F5821094
:10087300AF08F518400215198008F518400215193C
:10088300D2AF85198322BB0102E722C082C08389CC
:10089300828A83BB0003E08002E493D083D0822268
:1008A300C0D0251810AF08F518500205198008F5B7
:1008B3001850020519D2AFD0D022C0E0C0D0E8C092
:1008C300E0E5A8D2AFC2C7A2E792AFD0E0F8D0D09C
:1008D300D0E0326016080808C6C313C618C613C68C
:1008E30018C613C618C613C6D5E0EA22C3E0C696D7
:1008F300F608A3E0C696F608A3E0C696F608A3E0BA
:10090300C696F622C0E0E493A36C7009D0E0D0E071
:10091300D0E0020765A3A3D0E022251810AF08F5A5
:1009230018400215198008F51840021519D2AF2294
:10093300E76670100809E766700A0809E76670043D
:100943000809E76622E066701008A3E066700A08EB
:10095300A3E066700408A3E06622C3E09608A3E060
:100963009608A3E09608A3E096A2D265D03322C3EB
:10097300E096F008A3E096F008A3E096F008A3E061
:1009830096F022E026F008A3E036F008A3E036F064
:1009930008A3E036F022E627F60809E637F6080949
:1009A300E637F60809E637F622E026F608A3E0362E
:1009B300F608A3E036F608A3E036F622C0E0E8C066
:1009C300E0E58124FCF8E6A2E7D0E0F8D0E022E6F7
:1009D30047F60809E647F60809E647F60809E64731
:1009E300F622E657F60809E657F60809E657F60829
:1009F30009E657F622E056F608A3E056F608A3E008
:100A030056F608A3E056F622E056F008A3E056F0A7
:100A130008A3E056F008A3E056F022700422600D0C
:100A230018C6C333C608C633C6D5E0F41822E4C3D8
:100A330096F608E496F608E496F608E496F622603D
:100A43000D08C6A2E713C618C613C6D5E0F322C61F
:100A5300F4C608C6F4C608C6F4C608C6F4C622C35C
:100A6300E7960809E7960809E7960809E79622C377
:100A7300E09608A3E09608A3E09608A3E096227503
:100A8300D00075814075180175190300020497E0C1
:100A9300F608A3E0F608A3E0F608A3E0F622600C4C
:100AA30008C6C313C618C613C6D5E0F422E6F00879
:100AB300A3E6F008A3E6F008A3E6F022CAC0E0E646
:100AC300F0A308DAFAD0E0FA22E0FAA3E0FBA3E00D
:100AD300FCA3E0FD22EAF0A3EBF0A3ECF0A3EDF01E
:100AE30022E5C754F84401F5C77901222518F58298
:100AF300E43519F58322C2AF75D69F020000221296
:100B0300083EC0B20112083EB7B30112083E06B652
:100B13000112083E59B70112083EFCB70112083E04
:100B230047B90112083E65B90112083E99580012EF
:100B3300083EAB580012083EFD580012083E5E59AD
:100B43000012083EE8590012083E8C5A0012083E73
:100B5300E05A0012083EF95A0012083E1F5B0012C9
:100B6300083E5A5B0012083E9E5B0012083EC55BBE
:100B73000012083E165C0012083EC65C0012083ED6
:100B83007E5D0012083E465E0012083E235F00129F
:100B9300083EA95F0012083EB85F0012083EC35F1B
:100BA3000012083ECC600012083EDD600012083ED1
:100BB30053610012083EE5610012083E3D620012D7
:100BC300083E03630012083E34630012083E796353
:100BD3000012083E86630012083E1A650012083EA2
:100BE3007D660012083E99670012083E036A0012F0
:100BF300083E0E6A0012083E186A0012083E236A75
:100C03000012083E2D6A0012083E376A0012083EA1
:100C1300426A0012083E4D6A0012083E7E6A0012C4
:100C2300083EA26A0012083EC66A0012083E2B6BF9
:100C33000012083E6F6B0012083E8B6B0012083ED9
:100C4300026C0012083E3A6C0012083E866C0012D9
:100C5300083EE36C0012083EC56E0012083E4B6F5F
:100C63000012083E1C700012083E2C730012083E4E
:100C730081730012083EAD730012083EF97400122E
:100C8300083E49750012083E9E750012083E9F7685
:100C93000012083E37770012083EB9770012083E6B
:100CA30059780012083EE4200012083E1D2100126C
:100CB300083EF7220012083E36230012083E802326
:100CC3000012083E25240012083E84240012083E28
:100CD300B8240012083E25250012083E42260012C1
:100CE300083E4A270012083EE0270012083E272B41
:100CF3000012083ED02B0012083EAC2C0012083E16
:100D03000D2D0012083E2A2E0012083E5430001208
:100D1300083E0B310012083E15310012083E4831DF
:100D23000012083E0F320012083EAA320012083E9B
:100D33000F330012083E38330012083E5A330012B4
:100D4300083E89350012083E60360012083EA4367C
:100D53000012083E11370012083ECC370012083E3D
:100D6300FE370012083E42380012083E7538001262
:100D7300083ECA380012083E1F390012083EB33934
:100D83000012083E153A0012083E7D3A0012083E52
:100D9300263C0012083E0E3D0012083E503E001253
:100DA300083E7E400012083E3E410012083E6D435D
:100DB3000012083E10440012083E4E440012083E42
:100DC300FA450012083E0E460012083E184600126D
:100DD300083E42460012083E4E460012083E6D464B
:100DE3000012083E24470012083E63470012083EE3
:100DF3006D470012083E21480012083E20490012A8
:100E0300083E194A0012083EB64A0012083E584BE3
:100E13000012083E6F4B0012083EA64B0012083E1C
:100E2300C44B0012083E084C0012083E2D4C001221
:100E3300083E134D0012083E7F4D0012083EF94D47
:100E43000012083E084F0012083E47500012083EA9
:100E5300A9500012083E63510012083E8651001249
:100E6300083E5A520012083EA5520012083EE752AD
:100E73000012083E3E530012083E75530012083E0E
:100E8300A3530012083EDC530012083E0154001223
:100E9300083E89540012083EAC560012083E0B5718
:100EA3000012083E9F570012083E0B580012083EDE
:100EB3005F580012083ECBB30312083E0AB4031274
:100EC300083EAABA0112083E04BB0112083E60BBE9
:100ED3000112083EACBB0112083EC7BB0112083E1B
:100EE300F8BB0112083E15BC0112083E21BC0112D9
:100EF300083E95BD0112083EAEBD0112083E15BE67
:100F03000112083E28BE0112083E36BE0112083EF9
:100F1300EABE0112083ECEBF0112083ED4C0011240
:100F2300083E5AC10112083E64C10112083ED1C1F4
:100F33000112083EE8C10112083E1AC20112083E1E
:100F430053C20112083E7DC20112083EDEC20112E5
:100F5300083EFEC20112083E1CC30112083E62C3D2
:100F63000112083E88C40112083ED5C40112083E8E
:100F730004C50112083E7AC50112083EA2C501123A
:100F8300083EDBC50112083EE9C50112083E41C611
:100F93000112083E90C60112083ECFC60112083E58
:100FA300FFC60112083E2BC70112083E36C70112C5
:100FB300083E54C70112083E16C80112083E20C855
:100FC3000112083E5BC80112083E71C80112083EB7
:100FD3007AC80112083ECFC80112083EE3C80112C5
:100FE300083EF1C90112083E04CA0112083E19CA9B
:100FF3000112083EBBCA0112083E3ECB0112083E55
:10100300FCCB0112083E07CC0112083E2DCD011284
:10101300083E49CD0112083E9BCD0112083EDACDB0
:101023000112083EEFCD0112083E31CE0112083EF7
:101033007ED00112083EFCD00112083E6FD101128E
:10104300083E91D30112083EA9D30112083EACD346
:101053000112083EB8D30112083ECCD30112083E58
:10106300D4D30112083E07D40112083EB7D40112AB
:10107300083E2DD50112083EA0D50112083E54D6D4
:101083000112083E09D70112083E28D70112083E73
:10109300C8D70112083ED4D70112083EFFD7011268
:1010A300083E02D80112083E6CD80112083E94D9BA
:1010B3000112083E6CDA0112083EF7DA0112083E0B
:1010C30010DC0112083ECDDC0112083E06DD0112E0
:1010D300083E37DD0112083ED7DD0112083E07DE68
:1010E3000112083EE2DE0112083E7BDF0112083ED8
:1010F30006E00112083EB7E00112083E39E1011291
:10110300083E6BE10112083EACE10112083E71D2C8
:101113000212083ED6D20212083E13D30212083E30
:1011230062D30212083E78D50212083E5BD7021240
:10113300083EC5DA0212083E00DB0212083E22DB3B
:101143000212083E85DB0212083EB9DB0212083E9A
:10115300DCDB0212083E09DC0212083E65DC0212E7
:10116300083E5BBC0212083ED9BC0212083E0FBD0A
:101173000212083E7BBD0212083EEEBE0212083E7A
:101183000ABF0212083E4FBF0212083EDDBF021221
:10119300083E36C00212083E63C10212083E75C201
:1011A3000212083ED2C20212083E3EC30212083E99
:1011B3009FC30212083EE0C30212083E8DC402120E
:1011C300083E9FC50212083ECAC50212083E15C654
:1011D3000212083E5CC60212083EEEC60212083E28
:1011E300A9C70212083EA3A70312083EB4A703121D
:1011F300083E05A80312083E4AA80312083EF4A8B5
:101203000312083E09B00312083E6FA40312083EFE
:10121300C7A50312083E20C80212083EC5C8021221
:10122300083EE5C80212083E05C90212083E19C964
:101233000212083E71C90212083EA1C90212083EF9
:1012430022CB0212083EC8CB0212083EAACC0212DD
:10125300083EFBCC0212083E3ECD0212083E81CD71
:101263000212083EE7CD0212083E08CE0212083EE3
:1012730094CE0212083EC5CE0212083E39CF0212A6
:10128300083EE7D00212083EC1D10212083E03D243
:101293000212083E5DD20212083E9EA20312083ECD
:1012A300BFA20312083EF5A30312083E1FA40312B4
:1012B300083E53910312083ECE910312083ED99182
:1012C3000312083EFA910312083E1EB00212083EB2
:1012D30021B00212083EDBB00212083E06B1021230
:1012E300083E4DB10212083E72B10212083E93B19C
:1012F3000212083EC7B10212083E00B20212083EB3
:1013030029B30212083E60B30212083E80B30212F0
:10131300083E1BB40212083EE0B40212083E17B5A1
:101323000212083E8CB60212083E2FB70212083E84
:1013330028B80212083E51B80212083EA5B802129C
:10134300083E6BB90212083E99B90212083E2EBB41
:101353000212083EAFBB0212083EE2BB0212083E75
:101363002FF60112083E39F60112083E85F60112E6
:10137300083EF3F60112083E14F70112083E7BA95A
:101383000112083EDBF70112083E6FFA0112083E14
:1013930078FA0112083ECBFA0112083EF4FA011260
:1013A300083E5BFB0112083EECFB0112083E2EFCDB
:1013B3000112083E78FC0112083ED7FC0112083ED8
:1013C30068FD0112083EA7FD0112083EE6FD011269
:1013D300083E1BFE0112083E2DFE0112083EA4B278
:1013E3000112083E5EFE0112083E67FE0112083E2E
:1013F3001DFF0112083E5DFF0112083EB5F80212FF
:10140300083E88F90212083EA2F90212083EB3F917
:101413000212083EC8FB0212083EE7FB0212083E16
:101423006CA00312083EA2A00312083EEBA0031215
:10143300083E3BA20312083EE1E10112083E20E30D
:101443000112083E5CE30112083E1BE50112083E4F
:1014530044E50112083ED7E70112083E1BE80112DA
:10146300083EA4E90112083E3CEA0112083EA4EA40
:101473000112083E45EB0112083E87EB0112083EBC
:10148300C7EB0112083E52ED0112083EC2EE0112F3
:10149300083EE7F00112083E15F10112083E3CF147
:1014A3000112083E45F10112083EA0F10112083E67
:1014B30033F20112083E51F50112083ED2F5011232
:1014C300083E37B50312083E80B30312083EDB8A99
:1014D3000312083EEE8A0312083E8B8B0312083E6A
:1014E300C68B0312083EE18B0312083E068C0312DF
:1014F300083E4B8C0312083E7C8C0312083EAD8CD5
:101503000312083E338E0312083E6CAA0312083EF0
:10151300A2AA0312083EBEAA0312083E00AB03129E
:10152300083E10AB0312083EA5AB0312083E12F4AB
:101533000212083ED7F40212083E8FF50212083E4B
:10154300CDF50212083E87F70212083EF3F70212A6
:10155300083E68F80212083E8FA00212083EE7A078
:101563000212083E91A10212083E39A20212083E5D
:1015730096A20212083EEFA20212083E03A3021231
:10158300083ECDA40212083E48A50212083E72A5E9
:101593000212083E2FA70212083E4AA70212083E73
:1015A30099A70212083EAFA70212083EBCA7021277
:1015B300083EF0A70212083E06A80212083E8CA8B5
:1015C3000212083E9BA80212083EF4A80212083E2B
:1015D3004EA90212083E9CA90212083EA6AA0212B4
:1015E300083E28AD0212083EC2AD0212083E04AE08
:1015F3000212083E99AE0212083EB6AE0212083E2F
:10160300B9AE0212083EBCAE0212083E2FAF021260
:10161300083E4AAF0212083E76AF0212083EB1AF4F
:101623000212083EB4AF0212083EC7AF0212083ED0
:10163300EEAF0212083EFDB20312083E09B30312D5
:10164300083E43B30312083EBE900212083EE990DF
:101653000212083EB5910212083E3A920212083E67
:10166300A3920212083EEF920212083E6E930212F8
:10167300083E00940212083E8C940212083ECE9457
:101683000212083E3A990212083EBA9A0212083E22
:10169300F99A0212083EC29B0212083E769C02127D
:1016A300083E269E0212083EB29E0212083E0080A9
:1016B3000212083EBA800212083E2C810212083E32
:1016C3003B810212083EB5810212083E24820212B7
:1016D300083E2E830212083E57830212083EF78308
:1016E3000212083E45840212083EB5840212083EE7
:1016F300E9850212083EC5860212083E36870212A9
:10170300083EB3880212083E75890212083E108A09
:101713000212083E6B8A0212083ED68A0212083E63
:10172300DA8B0212083E9B8D0212083E3A8E021299
:10173300083EAC8E0212083E698F0212083E2294C4
:101743000312083E76940312083ECE940312083E19
:1017530019950312083E7B950312083E1496031253
:10176300083E7C960312083E88960312083E169E96
:101773000312083E479E0312083E019F0312083ED0
:10178300679F0312083ED89F0312083ECBFD021247
:10179300083E57FF0212083EFCB00312083E0DB18B
:1017A3000312083EADB10312083E417E0012083E0B
:1017B3004F7E0012083E4DB50312083E67B2031276
:1017C300083E77B20312083E92B20312083EF3B208
:1017D3000312083E07AF0312083E8CAF0312083E04
:1017E300F0AF0312083EF5AD0312083E17AE031225
:1017F300083E81AE0312083E8CAE0312083ED0AE03
:101803000312083E00800312083E0E800312083EB6
:101813004F800312083E69800312083EF3800312CF
:10182300083E18810312083E35810312083E528197
:101833000312083E77810312083E9F810312083E7C
:10184300E7810312083E62820312083E12830312E9
:10185300083ED1830312083EDF830312083E5984F6
:101863000312083E3D850312083EF6860312083E26
:10187300F7B40312083E0C790012083E797900127E
:10188300083E3A7A0012083EAA7A0012083EB37B59
:101893000012083E2B7D0012083E8F7D0012083E89
:1018A300E47D0012083EED7D0012083EFC7D00122F
:1018B300083E0F7E0012083E257E0012083E2E7E53
:1018C3000012083EEDE50212083E42E60212083E0F
:1018D3003EE80212083E70E80212083E92E8021245
:1018E300083EABE80212083EC4E80212083ECEE905
:1018F3000212083E69EA0212083E0BA90312083ECF
:101903002FA90312083E48A90312083E7BA903121C
:10191300083EACA90312083EDAA90312083E3CAA0A
:101923000312083E4BAA0312083E55AA0312083EAF
:1019330062AA0312083EC3960312083EE9960312F5
:10194300083E26970312083E35970312083E549724
:101953000312083EBC970312083EC5970312083EC4
:1019630024980312083E48980312083E079903126D
:10197300083E14990312083E25990312083E58B4F1
:101983000312083E75B40312083EE0EA0212083E51
:101993003EEC0212083E4BEC0212083E5EEC0212D1
:1019A300083E7DEC0212083E93EC0212083EA7ECBF
:1019B3000212083E1CED0212083E81ED0212083E9F
:1019C30031EE0212083E06EF0212083E16EF021233
:1019D300083E25EF0212083ECEB10312083EF2B1D3
:1019E3000312083E1AB20312083E42B20312083E23
:1019F30053990312083E7A990312083E9B990312E6
:101A0300083E009A0312083EB99B0312083ED29B7C
:101A13000312083EDE9B0312083EF29B0312083EAC
:101A2300109C0312083E1A9C0312083E249C0312C6
:101A3300083E379C0312083E8A9C0312083EC39C4F
:101A43000312083EF29C0312083E409D0312083E17
:101A53008F9D0312083EAA9D0312083EB49D0312F4
:101A6300083EC59D0312083E0B9E0312083E86FFE7
:101A73000112083EB1DC0212083EDBDC0212083E12
:101A8300F7DC0212083E0ADD0212083E20DD0212D4
:101A9300083E7DDD0212083EB0DD0212083EECE195
:101AA3000212083E12E30212083E45E30212083E08
:101AB30091E30212083EBDE40212083EE5E402127D
:101AC300083EFAE40212083E0AE50212083E4EE519
:101AD3000212083EAFE50212083EBFE50212083EBD
:101AE300AFAB0312083ECAAB0312083EF3AB0312BB
:101AF300083E0DAC0312083E32AC0312083E51AC53
:101B03000312083E69AC0312083E97AC0312083E69
:101B1300B1AC0312083E14B40312083E5B870312F0
:101B2300083E62870312083E6E880312083E9E88B1
:101B33000312083EC4880312083EE7880312083ED6
:101B430009890312083E43890312083EA989031237
:101B5300083EE2890312083E2E8A0312083E5B8A7E
:101B63000312083E7B8A0312083E16A60312083EA0
:101B730028A60312083E13A70312083EA0A70312C8
:101B8300083EE2AC0312083E54AD0312083E92AD88
:101B93000312083ED3AD0312083E408E0312083EE3
:101BA3005C8E0312083EAB8E0312083EC78E0312EF
:101BB300083EF88E0312083E088F0312083EF48F86
:101BC3000312083EFE8F0312083E0B900312083ED9
:101BD3001B910312083E2F910312083E3891031202
:101BE300083E5EEF0212083EA3F30212083EA8F37A
:101BF3000212083ECAB40312083E94B40312083E0C
:101C0300D7FF0112083E19B50312083ECFA80112EF
:101C1300083E20A70112083EDBA40112083E62A47D
:101C23000112083E09A40112083E9DA30112083EB9
:101C330074A30112083E67A10112083E33A10112E9
:101C4300083E00A10112083EE4A00112083E0AA0CA
:101C53000112083EC29F0112083EF79D0112083E81
:101C6300779D0112083E749D0112083E7B9C011270
:101C7300083E499C0112083E869B0112083EB19919
:101C83000112083E42990112083E14990112083EBE
:101C930034B20112083EEBB10112083EA3B10112A6
:101CA300083EE1B00112083E54B00112083E1199FA
:101CB3000112083EFE980112083E96980112083E52
:101CC30085980112083E47B00112083E669701123B
:101CD300083E30970112083EF3960112083E94968F
:101CE3000112083E55AD0112083E3FFE0112083EA7
:101CF30063960112083E1E930112083E0F920112D1
:101D0300083E9E910112083E63910112083E2E91F6
:101D13000112083E22910112083E82900112083EF0
:101D2300C98F0112083E9C8D0112083E288B0112B7
:101D3300083EE68A0112083EB1890112083E66890F
:101D43000112083E98880112083EEF870112083EEF
:101D53008B870112083EC5870112083EA7AA01120C
:101D6300083E2BF70100000080FBE47300013636C8
:101D73000101000102010001030100010401060643
:101D830005020000070100340801000F09040101E6
:101D93000D0100FF0E08000017020000190100FFEB
:101DA3001A0100011B0100FE1C0100081D020000B6
:101DB3001F01000120010001210200002301000F87
:101DC300240200002601000127010008280200FF69
:101DD3002A0100072B0102402C0100002D01000104
:101DE3002E0100012F0100FF30010B1C3108000000
:101DF3003A0100083B01000F2F01000003007100AE
:101E03003001600011007000310220035004800093
:101E13001000610000001400630073007200620090
:101E2300430000001300060000000000040012003D
:101E33000000000000000000040004003700370029
:101E43003C024400000000000000000065000000A8
:101E5300350081000000050000008300000003023C
:101E630071023001600211027002010202020202D9
:101E73008002100261023A0041006302730272029F
:101E8300620243020002130238000002000204024D
:101E930012020002000200020002040204023700E0
:101EA30037003C02440200023900000200026502CE
:101EB300000235028102000205028202830200024F
:101EC300010371030103010301030103010322035E
:101ED30002030103100300030003000300030003D4
:101EE300000300034203000324030603000300036B
:101EF3000403120325032303250323030403040319
:101F0300000300030003440300030003230300034F
:101F13006503210035038103000305030003000368
:101F230000030101710101010101110101013101ED
:101F3300010101018001100161013B0014006301F3
:101F430073017201620143010001130106013D01A6
:101F53003500040112010001000100010001040128
:101F63000401330133013C01440132013600000115
:101F730000016501000135008101000105018201B5
:101F83008301000136000100060000000F0000007D
:101F93000000000000000000000003FFFF00000439
:101FA30003FFFF0000FFFF0FF4010005C40403203B
:101FB300000100030B000000000000000003010FFC
:101FC3000100EA16020060160300661604006C1690
:101FD3000500721606007E161100961614009C1654
:101FE30015009016FFFF000003EAF5E5D5D5C5B54A
:101FF300A59595858575756565555545453535258E
:10200300251515055E0F8E0F640F6A0F880F7C0F61
:10201300760F940F9A0FA00FAC0F700F580F520F3B
:102023000A2A0D02F40C05060D07FA0C0CD60C0D4A
:10203300E80CFF000000160F00000B150B02000256
:10204300220F3200000648105A106010280F661045
:10205300220F2E0FA810C610CC10AE10BA10B41059
:102063000C0E020B040B0A0708000F303016181968
:1020730020231A1C1E3000011916181616152303E7
:102083000000034948424D181725050200383C3E1D
:10209300363B3B352B432C303017181921301B1D91
:1020A3001F309C106C1072107E107810820FA60FD8
:1020B300C010B20FB80F02040201010101090200AE
:1020C300000000000000BE040A0E00E8030400152F
:1020D300002800040C05030908FF1E1E0A040F1044
:1020E3000C74F7120374E99003B0F0900365E4F005
:1020F300121B6A9003B5E4F0A3F09003B1F0A3F0D0
:10210300120E62121B70900334E4F0A3F09020E1EE
:1021130093FA7902121BD0024D7A74F2120374EA15
:10212300FEEBFF548060699003B0E0F91213A28ABA
:10213300088B09EA4509604F7C0080010CEC75F0BF
:1021430003A4F8A9F0742328F582742039F583E4F5
:1021530093F4602CE493F88508828B83E06870DC49
:10216300AA08EC75F003A4F8742428F582742039C6
:10217300F583E493C0E0740193F583D082121D6D5F
:10218300AA08AB09121396EEFAEF6480FB0222EA67
:10219300EF5420601D120D848A088B09EA450960FB
:1021A3000A120CE8AA08AB09121396EEFAEF6420A0
:1021B30080DAEEA2E0501A90036AE0640F700B79A4
:1021C30000120CB2E960031222EDEE6401FAEF8013
:1021D300BB542070030222B8750C001237BF8B0961
:1021E300EA450970107C027D007A207B009003B0E1
:1021F300E0F91214EC7C0079047A007B00120D6084
:102203008A088B098018850882850983A3A3A3A361
:10221300A3A3A3A3A37401F0850A08850B09E5080A
:102223004509606D7C007904AA08AB09120D608A28
:102233000A8B0B750C01E5082404F8E509123563D4
:1022430024FFF0A3E034FF12585670CC8508828532
:102253000983A3A3A3A3A3A3A3A3A3A3E0640170DC
:10226300A5850882850983A3A3A3A3A3A3E054049C
:102273007094850882850983A3A3A3A3A3A3A3A31F
:10228300A37406F07AB7850882850983122419801E
:1022930087120D307C0079017A007B00120D608B70
:1022A30009EA45097009E50C70057A20124719EE11
:1022B30064200221D0EF5402600B120E5CEEFAEFA1
:1022C300640202218FEF540460191248B01247D000
:1022D3007901900363124B34120BF8EEFAEF6404A6
:1022E30002218F7A007B00022520900CF9122BB774
:1022F300120CCA22C082C08374EA12091D85188297
:10230300851983AA82AB83794B121BA67408120A20
:10231300EF7402F07409120AEFAA82AB83795012A8
:102323001BA67413120AEFE4124D03121BC4741696
:10233300023CDD74F712037474E112091DEAFEEB2B
:10234300FFEE4F6033851882851983AC82AD83120B
:102353000DA87406120AEFE0601E7417120AEFE06C
:10236300FD7401120AEFE0FCEEFAEFFB7900120BA9
:1023730020E9600479A480027900024D7574F61295
:102383000374EAFEEBFF8E828F83A3A3A3A3A3A30D
:10239300E05440601B1251F21224E760067AFF7B7F
:1023A300FF801A8E828F83123969FAA3E0FB8003C0
:1023B300120DCC74FE6A700374FF6B60411251F20C
:1023C30012475D120E20E98E828F8360061224125B
:1023D300E480051224127401F07CB87D0C8E828F88
:1023E30083124B34121BCAE9F5087015EE4F6009CE
:1023F3007901EEFAEFFB120D3CA90802478E75082E
:10240300CDAA088E828F83122419E960DF80EAE067
:10241300240D123E3822E0240C123E38E0F9120C4F
:10242300C42274F6120374E9FEEAFF7A0F7B0012EA
:102433001390EA4B60198A828B83740CF0EEA3A38A
:10244300F0EF8A828B83A3F01247B97900802FEED5
:10245300F9120D668A088B09A808A909E849601CC6
:1024630088828983A3A3A3A3A3A3A3A3A37406120C
:10247300547DE0F9120C7CEEF9120D4279100247FB
:102483008EC082C08390036AE0640F7014EA4B60CD
:1024930010900365E064086005E06404700312248F
:1024A300A7023D07EAFCEBFD7A017B009003B0E055
:1024B300F91214E622C082C0837900EA241DF58252
:1024C300EB12396624FD600B14600824FD600424BC
:1024D300FD700109023D078E828F83A3A3A3A3A3EB
:1024E300A3A3A3A31224EB221239AEFB120E20E9FD
:1024F300228E828F83A3A3A3A3A3A3A3A3A31224A4
:10250300EB6402228E828F83A3A3A3A3A3A3A3A31B
:10251300A3123CFE900356E068221208A37F060232
:10252300058D74F412037474FD12091D8A088B0956
:102533008A828B83A3A3E0F9120D668A0A8B0BAE02
:102543000AAF0BEE4F700302262C850882850983A0
:10255300A3E064F16030850882850983A3E064CD3C
:102563006024850882850983A3E0641A60188508BE
:1025730082850983A3E064E9600C85088285098369
:10258300A3E064E170087900120D3CE9706C8508E2
:1025930082850983A3E0C0E07402120AEFD0E0123F
:1025A3003CE2EEF0A3EF12300D851882851983AA61
:1025B30082AB837005120BE08003120E08740212C3
:1025C3000AEFE064E970338E828F83122638750A2E
:1025D30001780A12085F750AE9780A12085FE508AC
:1025E300240CF582E509122AFF122FEAFCA3E0FD71
:1025F3008A828B831230041208A38E828F83A3A353
:10260300A3A3A3A3A3A3A3E0640270108E828F836A
:10261300A3A3A3A3A3A3A3A3A37406F085088285FE
:102623000983A3A3E0F9120D42120D30900CFD12A1
:1026330022F0022BBCE0F8A3E0F9E8FAE9FB2274EC
:10264300F4120374EAFEEBFF7508008E828F83A3F6
:10265300A3A3A3A3E060427508088E828F83A3A37C
:10266300A3A3A3A3A3A3123C118B0BEA450B6010F6
:1026730075082C8E828F83A3A3A3A3A3E0D2E0F0DB
:102683008E828F83A3A3A3A3A3E0540364016003F7
:1026930002272B43081102272BEE2418122BC960A3
:1026A30033EE241A122BC9700F1225077003A3E00F
:1026B3006970757508228070EE241BF582EF12276E
:1026C30030241AF582EF123015EE24191252261215
:1026D3000C6A80541224F4700375080112250770E4
:1026E30003A3E0697006E508D2E1F508E508601583
:1026F3008E828F83A3A3E07006E508D2E58004E50C
:1027030008D2E6F5081224DA64017006E508D2E07F
:10271300F5088E828F83A3A3E0600D12273E640128
:102723006006E508C2E0F508A908022BC112395476
:1027330012273722E0FCA3E0FDEE2212394E1239B4
:1027430086F9120E0EE922C082C08379018A828B38
:1027530083A3A3E0C394024001198A828B83A3A3BA
:10276300A3A3E0C39402400279008A828B83A3A3CC
:10277300A3A3A3A3A3A3A3E064F87003A3E0F4605B
:10278300458A828B83A3A3A3A3A3A3A3A3A3E064E8
:10279300F97003A3E0F4602E8A828B83A3A3A3A31F
:1027A300A3A3A3A3A3E064FA7003A3E0F460178ACE
:1027B300828B83A3A3A3A3A3A3A3A3A3E064FB701C
:1027C30003A3E0F4700279008A828B83A3A3A3E0BE
:1027D300F8900353E06860027900023D0774F01239
:1027E300037474DE12091DEAFEEBFF8E828F83A34E
:1027F300A3A3A3E0600E900CFB1247856006900C28
:10280300FB1222F07403120AEFAC82AD838E828F27
:1028130083A3A3A3124807125040E9600F74031265
:102823000AEFAA82AB83120CE2E970087901121B4A
:102833007C022AF4EE241B1239597410120AEF1287
:1028430047D07409120AEFE06021741A120AEFE00C
:10285300FD7404120AEFE0FC8E828F83124B3279EF
:1028630001120B20E96004790280C37403120AEF9A
:10287300AA82AB83120CDCE9F50A7409120AEFE0B1
:10288300702A90034DE060247422550A6422601C70
:102893007442550A644270CF7420120AEF122B124D
:1028A300600A7420120AEF122B0B70BBE9A2E650E8
:1028B300417403120AEFAA82AB83120CD0E97003AE
:1028C30002282F7420120AEF1239696403700F74FF
:1028D30020120AEFA3124777A3E0640D6014740378
:1028E300120AEFAA82AB83120E32E964017003026B
:1028F3002AF4EE242C122AFC122E207003A3E06982
:10290300701C750800780812085F780812085FEEDB
:10291300242E125226122B181230041208A3740903
:10292300120AEFE070030229D1122B18124B341252
:102933000E868A088B09EA45097003022A6E74041D
:10294300120AEFE0F88E828F83A3A3E028F8A3E0B6
:102953003400F9E8240D122B038A828B83A3A3A3EB
:10296300E068601CE88A828B83A3A3A3F090874866
:10297300120ACC850882850983A3A3A3A3120AD8CC
:102983007904E9120AEF12501D2AF8A3E0340088F3
:1029930082F583A3AA82AB83121D628A0C8B0D8CF2
:1029A3000E8D0F850882850983A3A3A3A3780C1238
:1029B30007F74003022AF490875C780C1209AC8570
:1029C3000882850983A3A3A3A3780C120AB09003FA
:1029D30065E064046008E064096003022AF4E50A20
:1029E300A2E54003022AACEE242E122BC9851882DD
:1029F300851983F0EE242F122BC9C0E07401120A4B
:102A0300EFD0E0F0EE2430122BC9C0E07402120ABA
:102A1300EFD0E0F07414120AEFE064017027740E33
:102A2300120AEF12395FEE2412122BC9687003A346
:102A3300E0697011740C120AEF1225017007741407
:102A4300120AEFE4F0EE2424122AFC12068E740418
:102A5300120AEFAC82AD837407120AEFAA82AB832A
:102A6300120BE674041208A3022AF49003AAE0648A
:102A73000160030229D17420120AEF122B1270098C
:102A8300E50AA2E650030229D17410120AEFE0F41A
:102A93007003A3E0F4605AEEFCEFFD7403120AEF37
:102AA300AA82AB83120CEE8048A2E6504474201233
:102AB3000AEF124B43701A741A120AEFE0640270A1
:102AC300307403120AEFAA82AB837900120DFC80E3
:102AD300207420120AEF122B0B7016741A120AEFCD
:102AE300E06404700C7403120AEFAA82AB83120D24
:102AF300F67422024EEFEE240BF582EF12395422C4
:102B0300F582E91247E9F822125204E0640722121F
:102B13003986640622EE242A1239511227372412E9
:102B23001239512274F4120374EAFEEBFF8C088D00
:102B3300099005DCE0600F1225077003A3E06970BC
:102B430005120C58804F7900124B27120C888A8289
:102B53008B83E58245836035A3A3A3A3A3A3E0549A
:102B630018602AE508241BF582E509122AFF1206DC
:102B7300921231FD122AFF120692EE2418125226E7
:102B8300122B9A120C9A74041208A380087900126B
:102B93002B9A120C5E80278E828F83A3A3A3A3A3F9
:102BA300A3A3A3A3122737240BF582EF122BB3227F
:102BB3003400F5831239AEFB2274031208A37F0499
:102BC30002058DEE2417F582EF1247E92274F712FE
:102BD300037474F712091DEAFEEBFF900365E064CA
:102BE30003600DE064016008E064096003022C9A4D
:102BF3008E828F83A3E0707E7C007D007A027B004F
:102C0300121B76EE2402FAEF12356A12395F900333
:102C1300561247D07953121BAC7900122C9FE064F3
:102C230009600312303285188285198374011247B3
:102C3300A69003657404F07401120AEFAA82AB83B1
:102C4300794A121BA67401120AEFAC82AD837A5B38
:102C53007B03121B949003561250367A0312303CB6
:102C6300900350E0A2E35004D2F08002C2F0124776
:102C7300931222ED801E8E828F83A3AE82AF83FCDC
:102C83007D007A037B10121B768E828F83E0F9120C
:102C93002C9FE4F0120D187409024D779003631210
:102CA3002BB7120BF890036522C082C083900334C4
:102CB300124785701F900365E014600924FC600AC5
:102CC30014600C800F90033C8032900338802D9069
:102CD300033A8028E8496008900335122FE4700C0A
:102CE3008A828B83A3E0F9120BEC801B90033512CD
:102CF30032997005120E50800E9003D212478560F0
:102D030006124777121D6D023D0774F412037474A3
:102D1300FB12091D8A088B097A0F7B001213908A14
:102D23000A8B0BAE0AAF0BEE4F7003022E148E828A
:102D33008F83124D017950121BA685088285098362
:102D4300A3E06003022DFC900363E0F47003A3E0AF
:102D5300F46034900363E064FE7003A3E0F460273F
:102D6300851882851983122E207003A3E0696017EA
:102D7300850882850983A374EA12301A7A637B0378
:102D83007950121BAC80728518828519831251E524
:102D93001247D07A567B037953121BA6900356121F
:102DA30048011247D07A597B03794B121BA67A58F4
:102DB3007B0379E1121BA690036AE0C3940F5021B1
:102DC300900358E0C0E07402120AEFD0E0F07404FC
:102DD300120AEF7401F004120AEFAA82AB83121BEA
:102DE300BE750A00780A12085F780A12085F900D10
:102DF3001FE0F9122FFB1208A385088285098312AD
:102E03002E19A3F09003657403F0EEFAEFFB12475B
:102E1300B97405022BBEA3E08E828F83221251E97F
:102E2300E06822123E3F2274F512037474D812092B
:102E33001D8A088B098A828B83A3A3A312398B74FF
:102E430015120AEFAC82AD838A828B83A3A3A3A35B
:102E5300A3A3A3A3122FEAFAA3E0FB120D1E74157A
:102E6300120AEFE0706B850882850983A3A3A3A3ED
:102E7300A3A3A3A3E0C3940B40578E828F83A3A382
:102E8300A3A3A3A3A3A3E064027046EE240B122B17
:102E9300C9F4703D900365E06402603AE064066043
:102EA300359003341247856005122FE4604F900379
:102EB30065E064086005E0640470167417120AEF95
:102EC300E0F9741C120AEFAC82AD83124B27120D8A
:102ED300247428025703900334124785701F750822
:102EE30000780812085F780812085FEE2410122A8F
:102EF300FC12523E1236521230041208A38E828FF5
:102F030083124AA312357C12395F7402120AEF123C
:102F130047D0EE240D122BC9C0E07404120AEFD07F
:102F2300E012300DF508A3E0F509740F7808120AD2
:102F3300A17405120AEFE508F07419120AEFE0C054
:102F4300E07406120AEFD0E0F0741B120AEFE0C03F
:102F5300E07407120AEFD0E0F07416120AEFE0C033
:102F6300E07409120AEFD0E0F07417120AEFE0C020
:102F7300E07408120AEFD0E0F0EE2410122BC9C05F
:102F8300E0740A120AEFD0E0F0741A120AEFE0C0FC
:102F9300E0740B120AEFD0E0F07427120AEFE0C0DE
:102FA300E0740C120AEFD0E0F0741C120AEFA9824D
:102FB300AA8389088A09750A0078081208577C08C9
:102FC3007D007410120AEFAA82AB831243341208F5
:102FD300A3851882851983AA82AB83120BF2022E72
:102FE300D412329F640122E0F98A828B83A3A3A3C4
:102FF300A3A3A3A3A3A3E02290036312503A9003D5
:1030030059122BB7120DDE740222F0EE240B124775
:10301300E6221247E9FA22F07A567B0379531230FB
:103023002522121BAC7A597B03794B121BAC2290DD
:103033000363122BB7120E80227B00121B769003C0
:103043005912503A7A047B00121B7622F01252492D
:103053002274F212037474F812091DEAFEEBFF8C5A
:103063000A8D0B890C851882851983AC82AD837513
:10307300838775821D74081207B7F50DEEFCEFFD0B
:10308300851882851983AA82AB83124A047003755B
:103093000D019003B1803BEEFCEFFDE508240BFA34
:1030A300E5093400124A03601E850882850983A35B
:1030B300A3E0650C7011850882850983E0650A70B9
:1030C30004A3E0650B6038E5082414F582E50912D2
:1030D3002AFF123574E50845096024E50DA2E04096
:1030E300B6850882850983E0650A7004A3E0650B51
:1030F30070D5850882850983A3A3E0650C70C8AAEF
:1031030008AB09740802251DC082C0839003B10275
:103113003D0474F71203749003B11239AE8012EABE
:103123002414F582EB122AFF12398B121432EEFAB1
:10313300EFFBEA4B70E99003B1E4F0A3F0024D7AA0
:103143007F0702058D74F1120374EAFEEBFF890A0F
:103153008C088D098E828F83E08C828D83123C1BB9
:10316300AE82AF83E01243F4124365C41243F412F8
:103173003206E054038C828D83124363A2E2E4336C
:103183008C828D83124362131313541F1243F41260
:103193004361A2E7E4338C828D83A3A3A3A31232FA
:1031A300068E0C8F0D750E00780C1208577C087D67
:1031B30000E5082407124FA91208A31250148E0C1D
:1031C3008F0D780C1208577C037D00E508240F123D
:1031D3004FA91208A3E50AC3940F40148E828F836C
:1031E300A3A3A3E0C0E01231FD122AFFD0E08006C2
:1031F3001231FD125471F0023143E5082412F582B5
:10320300E50922A3A3123C1F0EAF832274F4120319
:103213007474F912091DEAFEEBFF89089003341256
:103223004785600E1232997009EEFAEFFB120E4ACF
:10323300805F900363E06E7003A3E06F70537401CB
:10324300650860097A777B03124A0470447A007B2D
:10325300021237C38B0BEA450B7036900366120AD2
:10326300CC851882851983120AD890036CE0C0E0DC
:103273007404120AEFD0E0F07405120AEF7401F03F
:103283007406120AEF124D01120BBCE9609B120B7C
:10329300C27407022BBE12329F640222125205A38C
:1032A300A3A3A3A3A3E02274F51203748A088B09D2
:1032B3008A828B83A3AE82AF83E0F9120C108E82D5
:1032C3008F83E064EB600C850882850983A3E06447
:1032D300E17009850882850983A3E4F01222ED7564
:1032E3000A01780A12085F850882850983A3E0F53D
:1032F30008780812085F7900122FFB1208A3120D39
:1033030030025706EAF0A3EBF0023D0774F612030E
:10331300749003B4E0701B7C0079017A007B001287
:103323000D60EA4B600C8A828B831247856003121F
:103333000CBE02478EC082C0831237AB401079FFA8
:10334300120D5AE9F89020E3E493C39850047901ED
:1033530080027900023D0774F01203748A088B0916
:10336300890B750C008A828B83A3A3A3A3A3A3A3B6
:10337300A3E0F9120D668A0E8B0FAE0EAF0F750A1E
:1033830001EE4F6003023438850882850983A3A3C5
:10339300A3A3A3A3125036850882850983A3A3A3FD
:1033A300A3A3A3A3124134124B34120D4E8A0C8BE8
:1033B3000DAE0CAF0DEE4F700302355B8E828F8323
:1033C300A3A3A3A3E4F0A3F0E508240B123567E05D
:1033D300C0E0122AF9D0E0F0120E26EE240CF5829A
:1033E300EF124759E508240EF582E50912395CEE20
:1033F300240EF582EF1247CD750C01EE2406F8EF8B
:10340300123563547FF0A3E054FC12529BE0540442
:1034130060030234BE900D0112412574077808122F
:103423000A1E8E828F83A3A3A3A3A3A3E04508F060
:10343300A3E04509F08E828F83A3A3A3A312357261
:1034430074077808120AA1E5085407F508E50B602C
:103453007A8E828F83A3A3A3A3A3A3A3A3A374029C
:10346300124366240D123E34E0A2E2500B90035146
:10347300124801A3A31247D0E5087003023530EECA
:103483002406F8EF3400F9E8FAE9FB8A828B83E03B
:10349300547FFCA3E054FCFDE50824FFF508E43465
:1034A300FFF50974077808120A1EEC4508F8ED4584
:1034B30009F98A828B831247D080728E828F83A30D
:1034C300A3A3A3A3A3E04480023437E508700575E2
:1034D3000A0080598E828F83A3A3A3A3A3A3E054DE
:1034E30020601212138AEA547F245F8E828F83A393
:1034F300A3A3A380238E828F83A3A3A3A3A3A3E069
:103503005410600A12138AEA540F240A80DD8E8253
:103513008F83A3A3A3A37401F0A3E412357C7404E3
:103523001237BA8B09EA4509700312474CE50CA21E
:10353300E050288E828F83A3A3A3A3124D67F9EED5
:10354300FAEFFB120D54E9601212477B6003123944
:1035530044EEFAEFFB121432750A00A90A024EF286
:103563001248C422FAE5093400FB8A828B8322A322
:10357300A3E0F508A3E0F5092212358022124FC516
:10358300A3A3A3A3A32274F412037474F712091D53
:103593007E00120D66EA4B700302364B8A828B83E0
:1035A300A3A3A3A3A3A3A3A3A3E064066003023678
:1035B3004B8A828B83A3A3A3A3A3A3A3E0FF8A8243
:1035C3008B83123E47E0C0E07408120AEFD0E0128A
:1035D300397F124A0A1247D0120D78EF54086066F9
:1035E3008518828519831250367A007B00120D48A4
:1035F3008B0BEA450B704F900363123A6F121BD685
:103603007C007D007A007B0080288E828F831239B4
:1036130069F47003A3E0F4602D9003631236521231
:103623004B341218CAE9641A601C7C007D00EEFA60
:10363300EFFB120D488A0A8B0BAE0AAF0BEE4F70ED
:10364300C97900121BDC7E01EEF97409022BBE124C
:10365300365622E0FCA3E0FD8E828F8322C082C017
:1036630083EA4B70059003B580068A828B83A3A3FC
:1036730012386F60258A828B83A3A3A3A3A3A3A37A
:10368300E0540860E5EC4D60158A828B831239693A
:103693006C7003A3E06D70D280047A007B00023D5E
:1036A3000774F2120374EAFEEBFF890A8C088D0992
:1036B3007A107B0012142CEA4B603F8A828B83A31F
:1036C300A3A3A3A3A3A3A3A3E412396DA3E50A129F
:1036D300520BA31237078A828B83A3A3A3A3E4F01D
:1036E300A3123979A3F012509FEA240CF582EB124E
:1036F3003C0B123700A3A3F0A3F0022520A3F08A0A
:10370300828B8322A3A3E508F0A3E509F02274F4D6
:10371300120374EAFEEBFF89088C0A8D0BEE4F60EF
:10372300557401650870147901120D5AE9F8902057
:10373300DBE493C398500F7911806A7404650870B1
:103743002F1237AB40F18E828F83A3A3A3A3A3A32E
:10375300A3A3A3E508123C1BA31257908E828F8369
:10376300A3A3E4F0A3F09003B51247856021800D75
:103773007402650860D079C1802BE0F8A31247FA80
:10378300A3A312386F88828983A3A370ED8003906B
:1037930003B5EEF0A3EF1237BA8B0BEA450B7003B8
:1037A30012474C7900022BC17904120D5AE9F890A3
:1037B30020D8E493C39822F01237BF227A207B00EB
:1037C3009003B0E0F91214F822C082C083E9F879BB
:1037D300009003B5801D8A828B83A3A3A3A3A3A315
:1037E300A3A3A3E068600574FF687001098A828B54
:1037F30083A3A312386F70DE023D0774F7120374BC
:10380300EA4B70059003B580068A828B83A3A312CB
:10381300386F60248A828B83A3A3A3A3A3A3A3A348
:10382300A3E06970E4EC60148A828B83E0240D12B8
:103833005027A2E240D380047A007B00024D7AC075
:1038430082C0839003B580068A828B83A3A3123838
:103853006F60128A828B83A3A3A3A3A3A3A3A3E072
:103863006970E580047A007B00023D07122BB7EAFA
:103873004B2274F21203748A0A8B0B8C0C8D0D7518
:103883000800750900EA450B602E9003B580068E8B
:10389300828F83A3A31238C2601EAC0CAD0DEEFA67
:1038A300EFFB850A82850B83121D6DE9640170DFCE
:1038B300EEF8EFF988088909AA08AB09022520E088
:1038C300FEA3E0FFEE4F2274F71203749003B512C8
:1038D300395F7C007D00800DE8FCE9FD88828983E7
:1038E300A3A312395FE8496030EA687002EB69709C
:1038F300E79003B5124B34E86A7002E96B8882895A
:1039030083A3A3700812395F9003B5800912395F4E
:103913008C828D83A3A31247D0024D7A74F71203CE
:1039230074EAFEEBFFEE4F6015120D72123991121D
:10393300477B6003123944EEFAEFFB121432024D57
:103943007AEE240C1239511239A622EE241DF58287
:10395300EF3400F58322F582EF123954123CFE2234
:10396300F582EF123954123986221239712212521A
:1039730013A3A3A3A322123971A3A3221237011203
:103983003986221251FEE022E0FEA3E0FF228E825E
:103993008F83E0241C123E381239A68E828F831245
:1039A30039A6221239AEFB12143222E0FAA3E02226
:1039B300C082C083EAFCEBFDEC4D700479058044C2
:1039C300EC24FBF582ED34FF1247837007123A0AA9
:1039D300E0F4600512139680E39003B0E0C0E012B8
:1039E3003A0AD0E0F09020DFE493F97AB77B031230
:1039F30013C0E96401700B7A007B201247507900F1
:103A030080027904023D07EC24FFF582ED34FFF5D3
:103A1300832274F4120374A2AFE433F508C2AF90A7
:103A230003B71238C26038EE24FBF582EF34FF127D
:103A330047837A007B209003B060051247538005CB
:103A4300E0F91213CCE4F50AF50B780A12085BEEE1
:103A5300FCEFFD7AB77B031213BA74021208A3E5D5
:103A630008A2E092AFEEFAEFFB022BC112503A85A7
:103A73001882851983AA82AB832274F212037474A9
:103A8300FC12091DEAFEEBFF750AFE750BFF120D12
:103A930036E960057911023C00EE2415122BC9604A
:103AA30037900D15E0C43354E0F8E0333354FC4849
:103AB300C0E0EE2415122AFCD0E0123C1B123C118C
:103AC3008B09EA45096011750AFFEE240F122BC911
:103AD30044041247DED2E0F08E828F831224E56025
:103AE30006EE2412123C08EE2413122BC970109018
:103AF30020DEE493C0E0EE2413122AFCD0E0F08E23
:103B0300828F83E0A2E750045403801CEE24141236
:103B13002BC97015900342E0C0E0EE2414122AFC76
:103B2300D0E0F0900342E004F0EE2411122BC964BC
:103B33000170169005D3E0600D90034DE0700A8E7E
:103B4300828F83E07003123C058E828F83E06401D1
:103B53007013EE240B12396364027009EE240F1202
:103B63002BC94440F0851882851983AC82AD83EE5E
:103B7300FAEFFB120D9C8A088B0974FE650A700329
:103B830074FFF470098E828F83A3A3124FB5EA45A5
:103B93000960668E828F83E0C0E07401120AEFD061
:103BA300E0F07402120AEF1250A37401120AEF85B7
:103BB300820C85830D780C12085BEE240F122AFC0D
:103BC300120692EE240E122BC9F50C780C12085F24
:103BD3009003561206927407120AEFE0F9AC0AAD8D
:103BE3000B120D9674071208A3E9FE74106E700B86
:103BF300AA08AB0912143280027E10EEF974040293
:103C0300251DEE2411F582EF123954E4F022A3129C
:103C13002BB779FF121C9C22123C1F22F08E828F3D
:103C230083A322C082C08374DE12091D8A828B8320
:103C3300A3A3A3A312395F740E120AEFE8F0A3E95A
:103C4300123CF5740C120AEF123CEE240DF582EBD4
:103C5300122BCCC0E0741A120AEFD0E0F0124F021C
:103C6300EB12395C7420120AEF123CEE2415F58234
:103C7300EB122BCCC0E07408120AEFD0E0F0EA2478
:103C83001CF582EB12395C7412120AEF123CEE241B
:103C930011F582EB122BCCC0E07409120AEFD0E0CD
:103CA300123CE274FFF07401120AEF74FFF0740225
:103CB300120AEF74FFF090874812068E7404120AFA
:103CC300EFAC82AD837407120AEFAA82AB83120BA7
:103CD300E674041208A3790074221208A380251243
:103CE3003CE622F085188285198322E8F0A3E9F0E7
:103CF300EA22123701A3123CFD22A3E0F8A3E0F964
:103D030022124B34D083D08202083B74EC1203742A
:103D130074EE12091D8A128B13ECFEEDFF890974F0
:103D230026120AEF124FB57428120AEFE0F5107449
:103D330029120AEF123E29742B120AEFE0F50EA3A3
:103D4300E0F50F7508107A1E7B0012142C74021212
:103D53000AEF12475D7402120AEF124785700302DD
:103D63003E22851882851983AA82AB837950124635
:103D730038124B347402120AEF123E47A312475D06
:103D83007410120AEF1257927402120AEFE0240B16
:103D9300123E347402F0120AEF123E477402F0121C
:103DA3000AEF1251F61250A37402120AEF124B4992
:103DB300E509F07402120AEFE0240C123E34E51018
:103DC300F07402120AEF123E31E512F0A3E513F08C
:103DD3007408120AEFE50CF0A3E50DF0740A120A59
:103DE300EFE510F0850E82850F83C082C083740DCA
:103DF300120AEFAC82AD83D083D08274031207B76B
:103E0300F97402120AEFAA82AB83120D3CE9640132
:103E1300700575080080087402120AEF12394AA966
:103E2300087412024FCCE0F50CA3E0F50D22E02458
:103E33001C123E3822F8A3E0123E3F223400F988D8
:103E430082898322124B3CA3A3A3A3A32274EE1261
:103E53000374EAFEEBFF8C088D098E828F83A374B3
:103E630008124819E060088E828F83A37410F01241
:103E73002BC660098E828F83A3E02408F0EE2415FD
:103E8300122BC960088E828F83A3E004F08E828F89
:103E930083A3A3A3A3A3A3E060198E828F83A3A309
:103EA300A3A3A3A3A3E0C3332402F88E828F83A327
:103EB300E028F0EE2411122BC96005750B0E800368
:103EC300750B008E828F83A3C082C083EE240D12F4
:103ED3002BC9D083D082F8E028250B8C828D83F008
:103EE300EE2411122BC9600512434428F085088281
:103EF300850983E0C39475400975080075090002BC
:103F03004032E0FA7B001251517003024032EEFA64
:103F1300EFFB120DA2EA85088285098312475EEE44
:103F23002402F8EF122E2612412C12406EF0EE24DA
:103F3300040808EF122E2612456EA312406EA3A3A7
:103F4300F0EE2413124054F0EE2414124054A3F064
:103F5300750A08EE2416122BC96010EE24181250AD
:103F630033E5082408125234750A10122BC6601662
:103F7300EE241A125033850A0CE508250C1252342C
:103F83007408250AF50A8E828F83A3A3A3A3A3A390
:103F9300E06059EE2407F510EF3400F51185108227
:103FA300F583E0C0E012403B122AFFD0E012405EEE
:103FB300E0C0E012403B122AFFD0E012405EA312A1
:103FC3004047120857851082851183E0C333FCE410
:103FD30033FD850A0CE508250C124FA91208A385A9
:103FE3001082851183E0C333250AF50AEE241512E6
:103FF3002BC9600BC0E012403B122AFFD0E0F01245
:104003002AF9124047120857EE240D122BC9FC7DE2
:1040130000850B0A8E828F83A3E0F8E50828F8E574
:10402300093400F9E8250AFAE9124FAC1208A3AAE9
:1040330008AB097F0A02058D850A0CE508250CF5F6
:1040430082E50922E0F50CA3E0F50D750E00780C6E
:1040530022123951124078A3A3A322F0050A8E82BB
:104063008F83A3A3A3A3A3A3A3A322A3A312529FB8
:10407300A312407822124572A3A32274F61203748A
:104083008A828B83E0FC90035312412574027808E3
:10409300120A1EEC4508FCAD09EA241212411F74F2
:1040A300067808120A1EEC4508FCED4509FDEA24D2
:1040B30015F582EB122BCC6004780180027800E4C2
:1040C300C8F9ED49FDEA2411F582EB122BCCF50872
:1040D300880974097808120A1EED4509FDEA2416B9
:1040E30012411F740B7808120A1EED4509FDEA24DC
:1040F3001712411F740C7808120A1EED4509FD8A38
:10410300828B83A3A3A3A3A3A3124125740A7808D4
:10411300120A1EECFAED4509FB02478EF582EB12FB
:104123003954E0F50875090022E085088285098382
:1041330022A3E0F98508828509832274EE120374B1
:104143008A0A8B0BECFEEDFF750F01E9C39408504F
:104153000579000243318E828F83E9F0124597E996
:104163006003750F0012457B8E828F831245C5EE67
:10417300124F03EF1245BAC0E0EE2411122AFCD00D
:10418300E01245B2C0E0EE2412122AFCD0E0123C49
:104193001B7408124FBDA3A3A3E06015124563EE81
:1041A3002413F582EF1247CD8E828F83A3E0240878
:1041B300F08E828F83A3A3A3A3A3A3A3A3E0602171
:1041C3008E828F83A38582088583091245A6EE24F8
:1041D30015F582EF1247CD850882850983E024080F
:1041E300F08E828F83A3A3A3A3A3E0601A8E828F92
:1041F30083A385820885830912458A8E828F83A3D0
:10420300A3A3A3A3124356EE2419123C08EE241BC6
:10421300123C08A3124811E070030242C5EE2419B0
:10422300F8EF3400F98E828F83A385820885830992
:10423300E0FAE50A2AF582E50B122BCC8882898302
:10424300124356FAE50A2AF582E50B122BCCC0E09D
:10425300EE241A122AFCD0E012435688828983E0A6
:104263006059F89020D7E493C398500575110C80DA
:1042730008EE2419122BC9F5118E828F83A3E0F85F
:10428300E50A28F50CE50B12433A120857E511C36A
:1042930033FCE433FD7AB37B0B1243341208A3EEF1
:1042A300241B122AFC74B3F0A3740BF0E511C3337F
:1042B300F8850882850983E0288006EE24181254C5
:1042C3006EF08E828F83A3E0F88E828F83E0C39893
:1042D3005003024154A3E0FA8A08E50A2508F8E5E9
:1042E3000B3400F9EE241DF582EF1248D912436610
:1042F300C39AC0E0EE2417122AFCD0E01247D6601E
:104303002BEE2417F8EF3400F9880889098882F521
:1043130083E024F21248BA240EFAA3E03400FB88A7
:1043230082898312475D124344C398F0A90F024068
:10433300361213667403223400F50D750E00780CE3
:104343002290034EE0F9120B26E9F88508828509CD
:1043530083E022F0850882850983E004F022A3A389
:10436300A3A3A3F08E828F83E02274F41203748AD2
:10437300088B09EA1243FBF0EA1313543F1243F488
:10438300A3A3A3F0EAC413131243FBA3A3F0EB12FA
:1043930043ED1244057409780A120AA11243EB1281
:1043A3004404740A780A120AA1E50A5401C0E0EC35
:1043B3002418F582ED122AFFD0E012440A740B7818
:1043C3000A120AA11243EBA3124404740C780A12D2
:1043D3000AA11243EBA3A3A3A3A3A3A3A3F0740D66
:1043E3007808120AA102272BE50A54018C828D83D7
:1043F30022540F8C828D832254038C828D83A3A33A
:1044030022A3A3A3A3A3A3F08A0A8B0B22C082C077
:104413008379008A828B83A3A3A3A3A3A3E090033E
:104423004D600FE070228A828B83A3A3E070190989
:104433008016E060138A828B83124B2B900356E025
:104443006A7003A3E06B70E7023D0774F012037414
:104453008A0A8B0B890C8C088D0912459712457BB0
:104463008508828509831245C5E508124F03E509CE
:104473001245BAC0E0E5082411F582E509122AFFC6
:10448300D0E01245B2C0E01231FD122AFFD0E01293
:1044930048E174081248FA6011124563E5082413D1
:1044A3001248D51248E1E02408F085088285098383
:1044B300A3A3A3A3A3A3A3A3E060178508828509ED
:1044C30083A31245A2E50824151248D51243662496
:1044D30008F0850882850983A3A3A3A3A3E0601939
:1044E300850882850983A3AE82AF8312458A850836
:1044F3008285098312436104F0AA08AB09120DB443
:10450300E9F50D7056850882850983A3A3A3A3A3A8
:10451300A312456E7014E0FA8A0EE50A250EF8E53B
:104523000B1247C2E50CC39A80211245A2E8240E60
:10453300F8E91247C290034EE0F9120B268E828FE0
:1045430083E0F8E50CC39824F2C399C0E0E508249E
:1045530017F582E509122AFFD0E0F0A90D024EF209
:10456300E50A2408F8E50B3400F92212457222E02B
:10457300850882850983A322850A82850B83A3A3E9
:104583001245DBE0F9EA22E0F8E50A28F582E50BBB
:104593001247E9228A828B83124EF7120DAE22AEA6
:1045A30082AF83E0F8E50A28F8E50B3400F922121C
:1045B30045EEA3A3A3E022123954E81245E7A3A3CF
:1045C300E022A3A3A3A3A3A3A3A3A31245E7124596
:1045D300DBA3A3E0F9EAF822E0FA850A82850B83DC
:1045E300A3A3A322F0A3E91245EE22F0850A828554
:1045F3000B83A3A3A3A322C082C0837AC57B0379C1
:10460300E2121BA67AC57B03023D07C082C08390DA
:104613000356023D04C082C08374FE12091D85182F
:1046230082851983AA82AB83794B124638124B34A5
:104633007402023CDD121BA685188285198322C0F1
:1046430082C083794A121BA6023D0774F6120374D3
:104653009003CDE0FE04F0EEF9120D668B09EA45F6
:104663000970EDEE60EAF902478E74F0120374EA02
:10467300FEEBFF8C088D09890A7410120AEFE0F52E
:104683000B7411120AEFE0F50C120E86EA4B70134D
:10469300E50C7042A90AAC08AD09EEFAEFFB120E65
:1046A3009E806EE50A6021EA2402F582EB122BCC90
:1046B300850A082508F8E4340013E813F070098A22
:1046C300828B83A3A37401F0E50C6045E50B7006B0
:1046D3008A828B83E4F07401650C7035E50B9003DB
:1046E300D47004E4F0802AE004F0900D02E0F89026
:1046F30003D4E0C398401AE4F0900359E06E7003CA
:10470300A3E06F700CEEFAEFFB7901120C0A12476B
:1047130017024EF27A017B009003B0E0F91214F213
:1047230022C082C08374016A7001EB70077A0112A0
:10473300474E8012900CF912475DEA4B6005122434
:10474300A78003124717023D077A207B009003B02E
:10475300E0F91213C6223400F583EAF0A3EBF0224A
:10476300C082C083900CFB023307C082C083900CCD
:10477300FD02330712520522EE240CF582EF3400BA
:10478300F583123CFEE849221208A37F0202058D3D
:10479300A2F0E4338518828519831247AF79521248
:1047A3001BAC221247AF7942121BAC22F0AA82AB98
:1047B3008322AA08AB099003B0E0F912139C2234B8
:1047C30000F9E508241DF582E509123954E8F0A340
:1047D300E9F022124FC1A3A3E022A3F0EE241512A5
:1047E30047E622F582EF3400F583E0221247F322F5
:1047F3003400F583E0F8A3E0F98882898322E0F8A6
:1048030012480722A3E0F98E828F83A3A322F0EE3E
:10481300241812395122F0EE24161239512274F45D
:10482300120374EAFEEBFF7A007B0412471B124863
:10483300B01247D09003657409F0120DC08A088B3B
:1048430009AC08AD09EE2413122AFC124B34124AA8
:1048530004640170487A0F1248A360418A828B83F3
:1048630074021248BAFAA3E0FB8A828B83A3E0FCAA
:104873008A828B83A3A3E0FBEC850882850983A34B
:10488300A312475E88828983124B3812412C124748
:10489300DDFAA3E0FB794A121BAC1247B5022BC128
:1048A3007B001213908A088B09EA4509229003368C
:1048B300123CFE900CFD22F0EE241DF8EF1248C4CA
:1048C30022123E3FE0221248CD223400F5837401C8
:1048D300F022F582E509123954E8F0A3E9221248DF
:1048E300E5221248E922F0850882850983A3221272
:1048F30048E9A3A3A3A3221248F2A3A3E022124DE3
:104903000B120E1422EE2417F582EF1248CD120D6E
:10491300C0EE241A123951EAF0A3EBF02274F41218
:10492300037474F312091D8908EAFEEBFF7C0D7D05
:10493300007900851882851983AA82AB83121372CA
:10494300EE241D122AFC1251F6A3E0F8741F5860DE
:104953000A7901121B7C79000249FBE8A2E55008A1
:10496300740C120AEF7401F0E8A2E75008740B12FA
:104973000AEF7401F0E8A2E6740A5008120AEF7411
:1049830001F08008120AEFE064017005EE24138041
:1049930003EE24151250337402120AEFAA82AB837A
:1049A300121B94122AF9124A091247D0740A120AE6
:1049B300EFE0640170331224DA703B120DCC8A0AE3
:1049C3008B0BA80AA90BEE240B122BC9687003A347
:1049D300E0697022120DC0EAFCEBFD7402120AEFCB
:1049E300AA82AB83124A04600D851882851983AAB3
:1049F30082AB83120C04A908740D022BBEEEFAEFEE
:104A0300FB121B8EE922E0124A0E22F8A3E0F9857D
:104A130018828519832274F612037474F312091D24
:104A23008A088B09ECFEEDFF7C0D7D00790085186B
:104A330082851983AA82AB8312539BA3A3A3A3A347
:104A4300A3A3A3A3124AA3124AACF8A2E550087485
:104A53000B120AEF7401F0E8A2E75008740A120A75
:104A6300EF7401F0E8A2E6EE50042413800224154B
:104A73001250337402120AEF124A95A3A3E0C0E066
:104A8300740C120AEFD0E0124D03120BFE740D02E8
:104A9300478BAA82AB83121B9485088285098322E4
:104AA300E0124A0EE8F0A3E922F012394E1251FA4D
:104AB300A3E02274F712037474E112091DEAFEEBFA
:104AC300FF8E828F83124B38A3A3A3E0A2E0505141
:104AD3008E828F8312263A8A828B83A3A3A3A3A3F6
:104AE300A3E054FE124B508A828B83124B49E0F9A8
:104AF3008A828B83E0241CFAA3E012356A124B34BA
:104B0300120DBAE9701B741D120AEF124B43701198
:104B1300851882851983AC82AD83EEFAEFFB120E02
:104B230002024D758E828F83A3A3A3A3A3A3A3A382
:104B3300A3122BB722124B3C221251FEA3A3A32292
:104B4300123986640422E0241B123E3822123CE60A
:104B5300AC82AD8322E9F87900740468600A740AB0
:104B630068600574036870010902083B74F6120358
:104B7300748A828B837420F0A3A37401F0120BB0A8
:104B83008A088B09AE08AF09EE4F60108E828F83BF
:104B93007401F09003A3E07003124908EEFAEFFBEF
:104BA30002478EC082C0839003B97401F0E9A2E387
:104BB30050037403F0E9A2E15004E0D2E2F0023DB5
:104BC3000774F612037479007C008A088B0978084D
:104BD3001205D3F8FF07F74BF54BF54BF54BF54BA8
:104BE300EE4BF24BF74BEB4B0C80097C0480050C2E
:104BF30080F67C089003B9E05C6003098003EC60F5
:104C0300010902478E74F61203748A828B83E07063
:104C130012A3124785600C8A828B83124B33121CBA
:104C2300CC80047A007B0002478E74F512037474FF
:104C3300F312091D8A088B09ECFEEDFF750A12EACF
:104C4300450970057900024CFC900356E065087035
:104C530004A3E065097014120DC0EAFCEBFD124ACF
:104C6300007005750A018003750A0085188285198D
:104C730083E4F004120AEFE508F0A3E509124D03FB
:104C8300120B74E960277403120AEFAA82AB831232
:104C93000B56E964017016750A017403120AEFAC2E
:104CA30082AD83124A006021750A00801C7412656C
:104CB3000A70169003A2E06402700EEEFCEFFDAAE8
:104CC30008AB09120B8CE970DFEEFCEFFDAA08AB11
:104CD30009120E8CE9F8740A687005750A018017C9
:104CE30074A0687012EEFCEFFDAA08AB09120E98CF
:104CF300AA08AB09120EAAA90A740D02570374027B
:104D0300124D0722124D0B22123CE6AA82AB8322DC
:104D130074F7120374EAFEEBFF8E828F83A3A3A3BF
:104D2300A3A3A3A3A3E06015EE2415122AFC122B60
:104D3300A7120E2CE964017004790180258E828FFD
:104D430083A3A3A3A3A3A3A3E06015EE2413122AB2
:104D5300FC124D67FAA3E0FB120E2CE9640160D943
:104D630079008013123656A3A3A3A3A3A3A3A3A3DB
:104D7300E022741F1208A37F0102058D74F0120351
:104D83007474FD12091D8A088B09ECFEEDFF890B73
:104D93007413120AEFE0F50C750A017401120AEF9D
:104DA300740412522E6048E50C601DEA2417F58244
:104DB300EB12547112521C8A828B83E0D2E7F0EA21
:104DC3002414F582EB123C0B124F02EB1247EF74E3
:104DD30003125794EE88828983A3A3F0EF88828914
:104DE30083A3A3123700123707120BAAE9F50AA906
:104DF3000A7403024EEF74EC12037474F512091D66
:104E03008A0A8B0B890C8C0E8D0F741F120AEFE02C
:104E1300F50D7420120AEFE0F510A3E0F5117E0101
:104E2300EE120AEF740AF0E97007E50DC333240AA2
:104E3300F0124FD47003024ED6124FE97409F0A357
:104E4300E50CC43354E0450D124FFBE50C702D7C8B
:104E5300008023ECC333F8E433F9E51028F8E511B7
:104E630039F988828983124EE388828983122E1945
:104E7300F0A30EAF830CECC3950D40D7E5082417C0
:104E8300F582E5091248C9120DC0E508241AF58216
:104E9300E5091247597403120AEFAC82AD83AA0ADB
:104EA300AB0B120B5CE96019E5082416F582E509E2
:104EB300124EDD120AEFA882A983E50824181247CF
:104EC300C9850882850983125790AA08AB09120B7A
:104ED300AAE9FEEEF9740B024FCC1248CD740322FB
:104EE300E08E828F83F0A3AE82AF83221208A37F6A
:104EF3000802058D1239AEF9EA2400E439FB22EAEF
:104F0300240BF5822274EE1203748A0C8B0D890E26
:104F13008C088D097412120AEFE0F50F7413120A4C
:104F2300EF124FB59005421247856077E50FC33303
:104F3300F8E433F9E8240EFAE93400FB1213908AFB
:104F4300108B11AE10AF11EE4F60588E828F8374A9
:104F5300D4F0A3A3E50CF0A3E50D124FBDE50EF0CD
:104F6300AC08AD09EE2405FAEF125237EE240D1208
:104F73002AFCE50FF0850A08850B09750A007808F5
:104F8300120857E50FC333FCE433FDEE240EFAEFAA
:104F9300124FAC1208A3EEFAEFFB9005421251F642
:104FA300121D6D024036FAE5093400FB12136674D4
:104FB3000322E0F50AA3E0F50B22124FC122124FA0
:104FC300C522123C1FA3A3A3221208A37F0C020530
:104FD3008D851882851983AA82AB83120E148A08E1
:104FE3008B09EA450922EA240BF582EB1247E9FE15
:104FF300A3E0FF8E828F8322F0A3AE82AF83AC0E39
:10500300AD0FEEFAEFFB12500D22121B9412501447
:1050130022EE2408FEEF3400FF22E0FA8E828F8313
:10502300A3A3E022FEA3E03400FF8E828F83E0225D
:1050330012395112503A22E0FCA3E0FD22122BB7A1
:10504300120DA82274F6120374EAFEEBFF9003BA62
:10505300801388828983E06E7003A3E06F603A88CF
:10506300828983A3A312478570E87A047B00121414
:105073002C8A088B09A808A909E849601C88828939
:10508300831250A39003BA124B3488828983A3A35B
:1050930012475D9003BA1247D002478E8A828B83F0
:1050A300EEF0A3EFF02274F41203747E009003BABF
:1050B30080070E88828983A3A312478570F4EEC309
:1050C30033FAE433FB125151607E7F009003BA80C0
:1050D3002488828983125036EFC333FAE433FBE525
:1050E300082AF582E5093BF583ECF0A3EDF00F8880
:1050F300828983A3A312478570D79003AB1225142B
:105103007003A3E0697808701912085BEEF50A785A
:105113000A12085F7C777D0379009003AB12515C20
:10512300801A12085BEEF50A780A12085F7C777D15
:105133000379009003AB124B34120E3E7403120832
:10514300A3AA08AB09121432120BC2022BC1121408
:105153002C8A088B09EA450922122BB7120E442226
:10516300C082C08380128A828B83A3A312395F908B
:1051730003BA1247D01214329003BA12386F70E692
:10518300023D0774F612037490036312398B900384
:10519300CE1251E51247D07ACE7B037950121BAC65
:1051A3009003CE122733FAEFFB120EA49003CE1214
:1051B300398B90054412478560257A067B001213CC
:1051C30090EA4B601A8A828B8374D5F0A3A3E4120E
:1051D300520B0412521C9005441251F6121D6D021B
:1051E300478E1251E922E0F8A3E0F9900363228E7F
:1051F300828F831251FA221251FE22E0F8125204D6
:1052030022A3E0F58388822212520F221252132224
:10521300F08A828B83A3A3A32212520FA3EEF0A3DF
:10522300EFF022F582EF1247E9F922124901EA4B26
:1052330022FAE5093400FB121B9422124808A3A3A7
:10524300A3A3A3A3A3229020D9E4932401F8E434D5
:1052530000F97A027B002274F71203747E00800443
:105263001258470E12536B40F77E00EE12528674AB
:10527300FEF0A30412529BE4F00EEEC3940340EB42
:10528300024D7A75F003A4F8A9F074BC28F87403EE
:1052930039F988828983A32212529F22F088828956
:1052A300832274F71203747F0080010F9020D6E4E9
:1052B30093F8EFC3985026EF1254576A7003A3E094
:1052C3006B70E81257F46C7003A3E06D600A74FF0F
:1052D3006C700374FF6D70D312536280047A007B89
:1052E30000024D7A74F61203747CFF7DFF7AFE7B15
:1052F300FF120E68EA4B70407508008036E50875AA
:10530300F017A4F8A9F0744E28F582740A125469B0
:10531300600C744D28F582740A1254697013743F3B
:1053230028FE740A39FF8E828F83125476EEFAEFC9
:10533300FB05081253D140C502478E74F41203745F
:105343008A088B09ECFEEDFF800B120E7AEEFCEF60
:10535300FDAA08AB09120E68EA4B70EE022BC1746A
:105363003F28FA740A39FB229020D6E493F8EEC35F
:10537300982274F7120374EAFEEBFFEE4F601012EB
:10538300539574FEF0A30412579A14F0A304F00289
:105393004D7A7C177D0079001213728E828F8322DF
:1053A30074F7120374EAFEEBFF7508008018E50832
:1053B30075F017A4F8A9F01257FF7003A3E06F600C
:1053C3000312584F05081253D140E3024D7A90203F
:1053D300D6E493F8E508C3982274F6120374120E08
:1053E300688A088B09A808A909E849600AE8240D16
:1053F300FAE93400FB80047A007B0002478E74F4E0
:105403001203748A0A8B0BECFEEDFF750800750915
:1054130000802EE50975F017A4F8A9F012583A6038
:105423001EE509125457650A7004A3E0650B700367
:1054330075080AEEFCEFFD1256F660034308A0055B
:10544300099020D6E493F8E509C3985004E5086071
:10545300C202272B75F017A4F8A9F0125462227424
:105463003F28F582740A39F583E022F582EF123979
:1054730054E422122BB7120CA02212529FA3A3A30F
:10548300A3A3A3A3A32274F21203748A088B09ECC7
:10549300FEEDFF740E120AEF124FB5750C007C007F
:1054A3007D01801012138AE50CF5F0EA84ACF075E7
:1054B3000C007D0078007900800312563312568F5A
:1054C3004003025555E8FAE9FBEA75F017A4FA859B
:1054D300F00D75F017EBA4250D12566B7003A3E0C6
:1054E300F460D712564965087004A3E0650960CAE1
:1054F3001256496E7003A3E06F60BF125649650AE6
:105503007004A3E0650B60B2E8FAE9FBEA75F017F3
:10551300A4FA75F017EBA4250DFB744D2AF58274DC
:105523000A12562A509474016D050C608DE50CC364
:105533009C4087E875F017A4F8AAF075F017E9A462
:105543002AF9743F28F582740A39F583124B340221
:10555300562778007900800312563312569C400375
:1055630002560EE8FAE9FBEA75F012A4FA85F00D8B
:1055730012567B64FE7003A3E0F460DC125671657F
:10558300087004A3E0650960CF1256716E7003A31F
:10559300E06F60C4125671650A7004A3E0650B6086
:1055A300B7E8FAE9FBEA75F012A4FA75F012EBA476
:1055B300250DFB74CE2AF582740812562A5099E8F9
:1055C300FAE9FBEA75F012A4FA75F012EBA4250DC3
:1055D30012563C64016081E06402700302555B74FF
:1055E300016D050C700302555BE50CC39C5003026F
:1055F300555BE875F012A4F8AAF075F012E9A42A35
:10560300F974C528F582740802554CE50C6011EC59
:10561300700E7401650C60030254A77C010254B23E
:105623007AFE7BFF0225203BF583E014C394062218
:10563300E8240108E93400F922FB74C92AF58274CD
:10564300083BF583E022E8FAE9FBEA75F017A4FAD0
:1056530075F017EBA4250D12565E22FB743F2AF555
:1056630082740A3BF583E02212565E64FE22E8FA56
:10567300E9FBEA75F012A4FA75F012EBA4250DFB11
:1056830074C52AF58274083BF583E0229020D6E4A2
:1056930093FAC3E89AE99400229020D2E493FA742F
:1056A3000193FBC3E89AE99B2274F51203748A08F9
:1056B3008B09ECFEEDFF750A008002050A9020D6E7
:1056C300E493F8E50AC3985028EEFCEFFDE50A756C
:1056D300F017A4F8A9F01256F660E0E50A75F01782
:1056E300A4F8A9F0743F28F582740A39F5831237B8
:1056F300098010744128FA740A39FB121B8EE922BF
:105703001208A37F0302058D74F01203748A088BB9
:10571300098C0A8D0B890C120E6E8A0E8B0FAE0E3E
:10572300AF0FEE4F6055125395E508F0A3E509124C
:10573300579A125792E50C600AEE240F122AFCE5E1
:105743000C8006EE240F12578AF09003D01247857F
:10575300601A9003AAE064017008EE240E12546EDE
:105763008010EE240E122AFC74078006EE240E121B
:10577300578A12304F120223125781024EF2EE243F
:105783000D123951E8F022123951740122A3A3E515
:105793000AF0A3E50BF022123580A32274F512035D
:1057A300748A088B09ECFEEDFF750A00800F12570F
:1057B300FF7003A3E06F600312584F050A9020D6D1
:1057C300E493F8E50AC3985025E50A75F017A4F8A1
:1057D300A9F01257F465087004A3E0650970CF744B
:1057E3004928F582740A39F5831250A380CD0257F4
:1057F30006744928F582740A12546922744928F5FB
:1058030082740A1254696E2274F7120374EAFEEB6F
:10581300FF7508008019E5081254576E7003A3E062
:105823006F700A12583A7005E508125848050812B5
:1058330053D140E2024D7A744128FA740A39FB12BB
:105843000B56E922EE75F017A4F8A9F01253621271
:105853000E7A2212529F123CFEE84922C082C08374
:1058630074F812091D851882851983AC82AD83757E
:10587300838775821574081207B785188285198383
:10588300AC82AD83124A046401700479008002790A
:10589300017408023CDDC082C0838A828B83E0D21C
:1058A300E7F012160002632DC082C0837900125DF7
:1058B30065127306C082C083900330126F28D083B1
:1058C300D082C3E09CA3E09D500C1274D5FAA3E0F0
:1058D3001258DC60010902632DFBEA75F00BA4FA90
:1058E300A8F075F00BEBA428FB900332E02AF8A391
:1058F300E03B8882F583E0540F2274F71203748926
:1059030008125D65125E0BACF075F00BE9A42CF97F
:10591300900332E028FEA3E039FF740165086006B6
:105923007402650870208A828B83125DF71269DB2B
:1059330074026508701B125CB6125E3E70138E8291
:105943008F83E4F0800BEA2403FCEB125DD9125D34
:10595300E5EEFAEFFB120B2C02666074F41203748B
:105963001278C979008E828F83E06076890A890B69
:105973008065E50A75F00BA4FAA8F075F00BE50B4A
:105983001258E97046E50A75F00BA4F8AAF075F011
:105993000BE50B125E1D8E828F83E08508828509DD
:1059A30083125EFF850882850983A31269DBEE24D7
:1059B30003FCEF125DE2126504127280AA08AB09C0
:1059C300120B2C7901900330126F43E50A2401F581
:1059D3000AE50B3400F50B125CBEE50A9AE50B9B56
:1059E300409002679474F5120374EAFEEBFF740BA4
:1059F300120AEF126509750A01EC4D602BEC12785F
:105A0300E5ED1273061269D37901120B38E50845E7
:105A130009606F850882850983A31278D37902AA66
:105A230008AB09120B38805AE5084509602B12733D
:105A33000A126BFD126505125E28700CEEFAEFFB7D
:105A4300120B3EE9F50A80CBEE2403FA125D607077
:105A5300317903EEFAEFFB80CA8E828F83A3E06471
:105A6300FE7003A3E0F4700BEE24030A0A0A125D2E
:105A730060700CEEFAEFFB120B3EE9F50A8003753A
:105A83000A00A90A7F0302058D74F71203749003B9
:105A930030126665EA4B602FEA75F00BA4FAA8F0A2
:105AA30075F00BEBA428FBEAFEEBFF12142C90031A
:105AB30032126665900332126F2F6012EEFCEFFD17
:105AC30079001213728007900332E4F0A3F00266A8
:105AD30060900330126EB3C3EE98EF9922C082C078
:105AE30083EC4D6005121B9480097C087D007900CE
:105AF30012137202632D74F61203747900EA4B6079
:105B0300187800880812748CEB1274D16004790140
:105B1300780808E8C3940840EA02667874F7120329
:105B23007474F312091DECFEEDFF85188285198349
